{
    "_format": "hh-sol-artifact-1",
    "contractName": "ShuffleManager",
    "sourceName": "artifacts/cache/solpp-generated-contracts/shuffle/ShuffleManager.sol",
    "abi": [
        {
            "inputs": [
                {
                    "internalType": "address",
                    "name": "decryptVerifier_",
                    "type": "address"
                },
                {
                    "internalType": "address",
                    "name": "deck52EncVerifier",
                    "type": "address"
                },
                {
                    "internalType": "address",
                    "name": "deck30EncVerifier",
                    "type": "address"
                },
                {
                    "internalType": "address",
                    "name": "deck5EncVerifier",
                    "type": "address"
                }
            ],
            "stateMutability": "nonpayable",
            "type": "constructor"
        },
        {
            "anonymous": false,
            "inputs": [
                {
                    "indexed": true,
                    "internalType": "address",
                    "name": "previousOwner",
                    "type": "address"
                },
                {
                    "indexed": true,
                    "internalType": "address",
                    "name": "newOwner",
                    "type": "address"
                }
            ],
            "name": "OwnershipTransferred",
            "type": "event"
        },
        {
            "anonymous": false,
            "inputs": [
                {
                    "indexed": true,
                    "internalType": "uint256",
                    "name": "gameId",
                    "type": "uint256"
                },
                {
                    "indexed": false,
                    "internalType": "uint256",
                    "name": "playerIndex",
                    "type": "uint256"
                },
                {
                    "indexed": false,
                    "internalType": "enum BaseState",
                    "name": "state",
                    "type": "uint8"
                }
            ],
            "name": "PlayerTurn",
            "type": "event"
        },
        {
            "anonymous": false,
            "inputs": [
                {
                    "indexed": true,
                    "internalType": "uint256",
                    "name": "gameId",
                    "type": "uint256"
                },
                {
                    "indexed": false,
                    "internalType": "uint256",
                    "name": "playerId",
                    "type": "uint256"
                },
                {
                    "indexed": false,
                    "internalType": "address",
                    "name": "playerAddr",
                    "type": "address"
                }
            ],
            "name": "Register",
            "type": "event"
        },
        {
            "inputs": [],
            "name": "INVALID_INDEX",
            "outputs": [
                {
                    "internalType": "uint256",
                    "name": "",
                    "type": "uint256"
                }
            ],
            "stateMutability": "view",
            "type": "function"
        },
        {
            "inputs": [
                {
                    "internalType": "uint256",
                    "name": "gameId",
                    "type": "uint256"
                }
            ],
            "name": "cardConfig",
            "outputs": [
                {
                    "internalType": "enum DeckConfig",
                    "name": "",
                    "type": "uint8"
                }
            ],
            "stateMutability": "view",
            "type": "function"
        },
        {
            "inputs": [
                {
                    "internalType": "uint8",
                    "name": "numPlayers",
                    "type": "uint8"
                }
            ],
            "name": "createShuffleGame",
            "outputs": [
                {
                    "internalType": "uint256",
                    "name": "",
                    "type": "uint256"
                }
            ],
            "stateMutability": "nonpayable",
            "type": "function"
        },
        {
            "inputs": [
                {
                    "internalType": "uint256",
                    "name": "gameId",
                    "type": "uint256"
                }
            ],
            "name": "curPlayerIndex",
            "outputs": [
                {
                    "internalType": "uint256",
                    "name": "",
                    "type": "uint256"
                }
            ],
            "stateMutability": "view",
            "type": "function"
        },
        {
            "inputs": [
                {
                    "internalType": "uint256",
                    "name": "gameId",
                    "type": "uint256"
                },
                {
                    "components": [
                        {
                            "internalType": "uint256",
                            "name": "_data",
                            "type": "uint256"
                        }
                    ],
                    "internalType": "struct BitMaps.BitMap256",
                    "name": "cards",
                    "type": "tuple"
                },
                {
                    "internalType": "uint256",
                    "name": "playerId",
                    "type": "uint256"
                },
                {
                    "internalType": "bytes",
                    "name": "next",
                    "type": "bytes"
                }
            ],
            "name": "dealCardsTo",
            "outputs": [],
            "stateMutability": "nonpayable",
            "type": "function"
        },
        {
            "inputs": [],
            "name": "decryptVerifier",
            "outputs": [
                {
                    "internalType": "contract IDecryptVerifier",
                    "name": "",
                    "type": "address"
                }
            ],
            "stateMutability": "view",
            "type": "function"
        },
        {
            "inputs": [
                {
                    "internalType": "uint256",
                    "name": "gameId",
                    "type": "uint256"
                }
            ],
            "name": "endGame",
            "outputs": [],
            "stateMutability": "nonpayable",
            "type": "function"
        },
        {
            "inputs": [
                {
                    "internalType": "uint256",
                    "name": "gameId",
                    "type": "uint256"
                },
                {
                    "internalType": "bytes",
                    "name": "next",
                    "type": "bytes"
                }
            ],
            "name": "error",
            "outputs": [],
            "stateMutability": "nonpayable",
            "type": "function"
        },
        {
            "inputs": [
                {
                    "internalType": "uint256",
                    "name": "gameId",
                    "type": "uint256"
                }
            ],
            "name": "gameState",
            "outputs": [
                {
                    "internalType": "uint256",
                    "name": "",
                    "type": "uint256"
                }
            ],
            "stateMutability": "view",
            "type": "function"
        },
        {
            "inputs": [
                {
                    "internalType": "uint256",
                    "name": "gameId",
                    "type": "uint256"
                },
                {
                    "internalType": "uint256",
                    "name": "cardIdx",
                    "type": "uint256"
                }
            ],
            "name": "getDecryptRecord",
            "outputs": [
                {
                    "components": [
                        {
                            "internalType": "uint256",
                            "name": "_data",
                            "type": "uint256"
                        }
                    ],
                    "internalType": "struct BitMaps.BitMap256",
                    "name": "",
                    "type": "tuple"
                }
            ],
            "stateMutability": "view",
            "type": "function"
        },
        {
            "inputs": [
                {
                    "internalType": "uint256",
                    "name": "gameId",
                    "type": "uint256"
                }
            ],
            "name": "getNumCards",
            "outputs": [
                {
                    "internalType": "uint256",
                    "name": "",
                    "type": "uint256"
                }
            ],
            "stateMutability": "view",
            "type": "function"
        },
        {
            "inputs": [
                {
                    "internalType": "uint256",
                    "name": "gameId",
                    "type": "uint256"
                },
                {
                    "internalType": "address",
                    "name": "player",
                    "type": "address"
                }
            ],
            "name": "getPlayerIdx",
            "outputs": [
                {
                    "internalType": "uint256",
                    "name": "",
                    "type": "uint256"
                }
            ],
            "stateMutability": "view",
            "type": "function"
        },
        {
            "inputs": [],
            "name": "largestGameId",
            "outputs": [
                {
                    "internalType": "uint256",
                    "name": "",
                    "type": "uint256"
                }
            ],
            "stateMutability": "view",
            "type": "function"
        },
        {
            "inputs": [
                {
                    "internalType": "uint256",
                    "name": "gameId",
                    "type": "uint256"
                },
                {
                    "internalType": "uint256",
                    "name": "playerId",
                    "type": "uint256"
                },
                {
                    "internalType": "uint8",
                    "name": "openningNum",
                    "type": "uint8"
                },
                {
                    "internalType": "bytes",
                    "name": "next",
                    "type": "bytes"
                }
            ],
            "name": "openCards",
            "outputs": [],
            "stateMutability": "nonpayable",
            "type": "function"
        },
        {
            "inputs": [],
            "name": "owner",
            "outputs": [
                {
                    "internalType": "address",
                    "name": "",
                    "type": "address"
                }
            ],
            "stateMutability": "view",
            "type": "function"
        },
        {
            "inputs": [
                {
                    "internalType": "uint256",
                    "name": "gameId",
                    "type": "uint256"
                },
                {
                    "internalType": "uint256[8][]",
                    "name": "proofs",
                    "type": "uint256[8][]"
                },
                {
                    "components": [
                        {
                            "internalType": "uint256",
                            "name": "X",
                            "type": "uint256"
                        },
                        {
                            "internalType": "uint256",
                            "name": "Y",
                            "type": "uint256"
                        }
                    ],
                    "internalType": "struct Card[]",
                    "name": "decryptedCards",
                    "type": "tuple[]"
                },
                {
                    "internalType": "uint256[2][]",
                    "name": "initDeltas",
                    "type": "uint256[2][]"
                }
            ],
            "name": "playerDealCards",
            "outputs": [],
            "stateMutability": "nonpayable",
            "type": "function"
        },
        {
            "inputs": [
                {
                    "internalType": "uint256",
                    "name": "gameId",
                    "type": "uint256"
                },
                {
                    "components": [
                        {
                            "internalType": "uint256",
                            "name": "_data",
                            "type": "uint256"
                        }
                    ],
                    "internalType": "struct BitMaps.BitMap256",
                    "name": "cards",
                    "type": "tuple"
                },
                {
                    "internalType": "uint256[8][]",
                    "name": "proofs",
                    "type": "uint256[8][]"
                },
                {
                    "components": [
                        {
                            "internalType": "uint256",
                            "name": "X",
                            "type": "uint256"
                        },
                        {
                            "internalType": "uint256",
                            "name": "Y",
                            "type": "uint256"
                        }
                    ],
                    "internalType": "struct Card[]",
                    "name": "decryptedCards",
                    "type": "tuple[]"
                }
            ],
            "name": "playerOpenCards",
            "outputs": [],
            "stateMutability": "nonpayable",
            "type": "function"
        },
        {
            "inputs": [
                {
                    "internalType": "uint256",
                    "name": "gameId",
                    "type": "uint256"
                },
                {
                    "internalType": "address",
                    "name": "signingAddr",
                    "type": "address"
                },
                {
                    "internalType": "uint256",
                    "name": "pkX",
                    "type": "uint256"
                },
                {
                    "internalType": "uint256",
                    "name": "pkY",
                    "type": "uint256"
                }
            ],
            "name": "playerRegister",
            "outputs": [
                {
                    "internalType": "uint256",
                    "name": "pid",
                    "type": "uint256"
                }
            ],
            "stateMutability": "nonpayable",
            "type": "function"
        },
        {
            "inputs": [
                {
                    "internalType": "uint256",
                    "name": "gameId",
                    "type": "uint256"
                },
                {
                    "internalType": "uint256[8]",
                    "name": "proof",
                    "type": "uint256[8]"
                },
                {
                    "components": [
                        {
                            "internalType": "enum DeckConfig",
                            "name": "config",
                            "type": "uint8"
                        },
                        {
                            "internalType": "uint256[]",
                            "name": "X0",
                            "type": "uint256[]"
                        },
                        {
                            "internalType": "uint256[]",
                            "name": "X1",
                            "type": "uint256[]"
                        },
                        {
                            "components": [
                                {
                                    "internalType": "uint256",
                                    "name": "_data",
                                    "type": "uint256"
                                }
                            ],
                            "internalType": "struct BitMaps.BitMap256",
                            "name": "selector0",
                            "type": "tuple"
                        },
                        {
                            "components": [
                                {
                                    "internalType": "uint256",
                                    "name": "_data",
                                    "type": "uint256"
                                }
                            ],
                            "internalType": "struct BitMaps.BitMap256",
                            "name": "selector1",
                            "type": "tuple"
                        }
                    ],
                    "internalType": "struct CompressedDeck",
                    "name": "compDeck",
                    "type": "tuple"
                }
            ],
            "name": "playerShuffle",
            "outputs": [],
            "stateMutability": "nonpayable",
            "type": "function"
        },
        {
            "inputs": [
                {
                    "internalType": "uint256",
                    "name": "gameId",
                    "type": "uint256"
                }
            ],
            "name": "queryAggregatedPk",
            "outputs": [
                {
                    "internalType": "uint256",
                    "name": "px",
                    "type": "uint256"
                },
                {
                    "internalType": "uint256",
                    "name": "py",
                    "type": "uint256"
                }
            ],
            "stateMutability": "view",
            "type": "function"
        },
        {
            "inputs": [
                {
                    "internalType": "uint256",
                    "name": "gameId",
                    "type": "uint256"
                },
                {
                    "internalType": "uint256",
                    "name": "cardIndex",
                    "type": "uint256"
                }
            ],
            "name": "queryCardValue",
            "outputs": [
                {
                    "internalType": "uint256",
                    "name": "",
                    "type": "uint256"
                }
            ],
            "stateMutability": "view",
            "type": "function"
        },
        {
            "inputs": [
                {
                    "internalType": "uint256",
                    "name": "gameId",
                    "type": "uint256"
                }
            ],
            "name": "queryDeck",
            "outputs": [
                {
                    "internalType": "uint256[]",
                    "name": "X0",
                    "type": "uint256[]"
                },
                {
                    "internalType": "uint256[]",
                    "name": "X1",
                    "type": "uint256[]"
                },
                {
                    "internalType": "uint256[]",
                    "name": "Y0",
                    "type": "uint256[]"
                },
                {
                    "internalType": "uint256[]",
                    "name": "Y1",
                    "type": "uint256[]"
                },
                {
                    "components": [
                        {
                            "internalType": "uint256",
                            "name": "_data",
                            "type": "uint256"
                        }
                    ],
                    "internalType": "struct BitMaps.BitMap256",
                    "name": "selector0",
                    "type": "tuple"
                },
                {
                    "components": [
                        {
                            "internalType": "uint256",
                            "name": "_data",
                            "type": "uint256"
                        }
                    ],
                    "internalType": "struct BitMaps.BitMap256",
                    "name": "selector1",
                    "type": "tuple"
                },
                {
                    "components": [
                        {
                            "internalType": "uint256",
                            "name": "_data",
                            "type": "uint256"
                        }
                    ],
                    "internalType": "struct BitMaps.BitMap256",
                    "name": "cardsToDeal",
                    "type": "tuple"
                }
            ],
            "stateMutability": "view",
            "type": "function"
        },
        {
            "inputs": [
                {
                    "internalType": "uint256",
                    "name": "gameId",
                    "type": "uint256"
                },
                {
                    "internalType": "bytes",
                    "name": "next",
                    "type": "bytes"
                }
            ],
            "name": "register",
            "outputs": [],
            "stateMutability": "nonpayable",
            "type": "function"
        },
        {
            "inputs": [],
            "name": "renounceOwnership",
            "outputs": [],
            "stateMutability": "nonpayable",
            "type": "function"
        },
        {
            "inputs": [
                {
                    "internalType": "uint256",
                    "name": "gameId",
                    "type": "uint256"
                },
                {
                    "internalType": "uint8",
                    "name": "numCards",
                    "type": "uint8"
                },
                {
                    "internalType": "uint8",
                    "name": "numPlayers",
                    "type": "uint8"
                }
            ],
            "name": "set_gameInfo",
            "outputs": [],
            "stateMutability": "nonpayable",
            "type": "function"
        },
        {
            "inputs": [
                {
                    "internalType": "uint256",
                    "name": "gameId",
                    "type": "uint256"
                },
                {
                    "internalType": "enum BaseState",
                    "name": "state",
                    "type": "uint8"
                }
            ],
            "name": "set_gameState",
            "outputs": [],
            "stateMutability": "nonpayable",
            "type": "function"
        },
        {
            "inputs": [
                {
                    "internalType": "uint256",
                    "name": "gameId",
                    "type": "uint256"
                },
                {
                    "internalType": "bytes",
                    "name": "next",
                    "type": "bytes"
                }
            ],
            "name": "shuffle",
            "outputs": [],
            "stateMutability": "nonpayable",
            "type": "function"
        },
        {
            "inputs": [
                {
                    "internalType": "address",
                    "name": "newOwner",
                    "type": "address"
                }
            ],
            "name": "transferOwnership",
            "outputs": [],
            "stateMutability": "nonpayable",
            "type": "function"
        }
    ],
    "bytecode": "0x60806040523480156200001157600080fd5b506040516200496d3803806200496d833981016040819052620000349162000103565b6200003f3362000094565b600380546001600160a01b03199081166001600160a01b03958616179091556002805482169385169390931790925560018054831691841691909117905560008054909116929091169190911790556200015f565b600980546001600160a01b038381166001600160a01b0319831681179093556040519116919082907f8be0079c531659141344cd1fd0a4f28419497f9722a3daafe3b4186f6b6457e090600090a35050565b80516001600160a01b0381168114620000fe57600080fd5b919050565b6000806000806080858703121562000119578384fd5b6200012485620000e6565b93506200013460208601620000e6565b92506200014460408601620000e6565b91506200015460608601620000e6565b905092959194509250565b6147fe806200016f6000396000f3fe608060405234801561001057600080fd5b50600436106101c45760003560e01c8063b42c2488116100f9578063c043e3b511610097578063f09db35711610071578063f09db357146103e7578063f2fde38b146103fa578063f3c7e26d1461040d578063fc7d66671461042057600080fd5b8063c043e3b5146103ab578063d0399bb8146103cb578063e489a3a8146103de57600080fd5b8063b74944ea116100d3578063b74944ea1461035f578063b853075414610372578063ba284c2114610385578063c033cc8d1461039857600080fd5b8063b42c248814610313578063b4764f5614610339578063b608151e1461034c57600080fd5b80634e0e1a3e1161016657806387aa5fef1161014057806387aa5fef146102a05780638da5cb5b146102c85780638e692857146102ed57806393aa38be1461030057600080fd5b80634e0e1a3e14610272578063715018a614610285578063765718d71461028d57600080fd5b8063261fe4ca116101a2578063261fe4ca146102175780632b218bd61461022a57806331d054561461024c5780634cc2dc7c1461025f57600080fd5b806303d3d0fd146101c95780631480a7b9146101de578063241f0c4f14610204575b600080fd5b6101dc6101d7366004613f24565b61042a565b005b6101f16101ec366004613cc8565b6104a9565b6040519081526020015b60405180910390f35b6101dc6102123660046140e9565b6104e3565b6101f1610225366004614080565b6105ac565b61023d610238366004614080565b61072a565b604051905181526020016101fb565b6101dc61025a36600461401a565b6107db565b6101dc61026d366004613d45565b61098b565b6101f1610280366004613cc8565b610d8c565b6101dc610de1565b6101dc61029b366004613f24565b610df5565b6102b36102ae366004613cc8565b610ed9565b604080519283526020830191909152016101fb565b6009546001600160a01b03165b6040516001600160a01b0390911681526020016101fb565b6101dc6102fb366004613e43565b610f7c565b6101dc61030e366004613f6d565b6113ff565b610326610321366004613cc8565b611441565b6040516101fb979695949392919061437e565b6101f1610347366004614124565b6116b2565b6101dc61035a3660046140a1565b611a8c565b6101dc61036d366004613f9f565b611b95565b6101f1610380366004613d0b565b611f09565b6101f1610393366004613ce0565b612199565b6101f16103a6366004613cc8565b61221f565b6103be6103b9366004613cc8565b612259565b6040516101fb91906143ea565b6101dc6103d9366004613cc8565b6122df565b6101f160085481565b6000546102d5906001600160a01b031681565b6101dc610408366004613b96565b612391565b6101dc61041b366004613f24565b61240a565b6101f1620f423f81565b60008381526004602052604090205483906001600160a01b0316331461046b5760405162461bcd60e51b815260040161046290614512565b60405180910390fd5b6000848152600660208181526040808420805460ff1916909317909255600790529020610499908484613793565b506104a384612507565b50505050565b60006008548211156104cd5760405162461bcd60e51b815260040161046290614453565b5060009081526006602052604090206001015490565b6104ee836001614691565b6008556000838152600560208190526040909120805460ff85811661ffff19909216821761010091861691909102179091551415610560576001546000848152600560205260409020805462010000600160b01b0319166001600160a01b039092166201000002919091179055505050565b61059660405180604001604052806011815260200170024b73b30b634b210373ab6a1b0b932399607d1b8152508360ff166125f0565b634e487b7160e01b600052600160045260246000fd5b60008281526005602090815260408083208151606081018352905460ff808216835261010082048116838601908152620100009092046001600160a01b031683850152878652600685528386208251888852601182018752858820865197880190965294548652915192949193811692610627929116612635565b1461067e5760405162461bcd60e51b815260206004820152602160248201527f4361726420686173206e6f74206265656e2066756c6c792064656372797074656044820152601960fa1b6064820152608401610462565b600081600a0160020185815481106106a657634e487b7160e01b600052603260045260246000fd5b9060005260206000200154905060006106bd612677565b905060005b845160ff1681101561071857828282603481106106ef57634e487b7160e01b600052603260045260246000fd5b602002015114156107065794506107249350505050565b806107108161471e565b9150506106c2565b50620f423f9450505050505b92915050565b60408051602081019091526000815260085483111561075b5760405162461bcd60e51b815260040161046290614453565b60008381526005602052604090205460ff1682106107ad5760405162461bcd60e51b815260206004820152600f60248201526e092dcecc2d8d2c840c6c2e4c892c8f608b1b6044820152606401610462565b5060009182526006602090815260408084209284526011909201815291819020815192830190915254815290565b60008581526004602052604090205485906001600160a01b031633146108135760405162461bcd60e51b815260040161046290614512565b60008681526006602052604090206001810154156108665760405162461bcd60e51b815260206004820152601060248201526f034b73a32b93730b61032b937b93910960851b6044820152606401610462565b600087815260056020526040902054610100900460ff1685106108ea5760405162461bcd60e51b815260206004820152603660248201527f67616d6520636f6e7472616374206572726f723a206465616c206361726420746044820152751bc8185b881a5b9d985b1a59081c1b185e595c881a5960521b6064820152608401610462565b6004815460ff16600781111561091057634e487b7160e01b600052602160045260246000fd5b1461092157805460ff191660041781555b85516012820155601381018590558461093b576001818101555b6000878152600760205260409020610954908585613793565b50866000805160206147a98339815191528260010154600460405161097a9291906145ae565b60405180910390a250505050505050565b600084815260066020526040902054849060049060ff1660078111156109c157634e487b7160e01b600052602160045260246000fd5b8160078111156109e157634e487b7160e01b600052602160045260246000fd5b146109fe5760405162461bcd60e51b8152600401610462906144a3565b6000868152600660208190526040909120600181015491810180548993908110610a3857634e487b7160e01b600052603260045260246000fd5b6000918252602090912001546001600160a01b0316331480610a94575080600701816001015481548110610a7c57634e487b7160e01b600052603260045260246000fd5b6000918252602090912001546001600160a01b031633145b610ab05760405162461bcd60e51b81526004016104629061447b565b60008881526005602090815260408083208151606081018352905460ff80821683526101008204811683860152620100009091046001600160a01b0316828401528c855260068452828520835194850190935260128301548452815191949293610b1c92909116612635565b9050808a5114610b6e5760405162461bcd60e51b815260206004820152601a60248201527f6e756d626572206f662070726f6f66732069732077726f6e67210000000000006044820152606401610462565b80895114610b8e5760405162461bcd60e51b8152600401610462906144cf565b80885114610bde5760405162461bcd60e51b815260206004820152601e60248201527f696e69742064656c7461277320736861706520697320696e76616c69642100006044820152606401610462565b6000805b845160ff16811015610cbe57604080516020810190915260128501548152610c0a9082612e45565b15610c9f57610c918d828e8581518110610c3457634e487b7160e01b600052603260045260246000fd5b60200260200101518e8681518110610c5c57634e487b7160e01b600052603260045260246000fd5b60200260200101518e8781518110610c8457634e487b7160e01b600052603260045260246000fd5b6020026020010151612ea0565b81610c9b8161471e565b9250505b82821415610cac57610cbe565b80610cb68161471e565b915050610be2565b50600183018054906000610cd18361471e565b9091555050601383015460018401541415610cfe57600183018054906000610cf88361471e565b91905055505b836020015160ff1683600101541415610d50576000600184018190556013840154815260058401602052604081208054849290610d3c908490614691565b90915550610d4b90508c612507565b610d7e565b8b6000805160206147a983398151915284600101546004604051610d759291906145ae565b60405180910390a25b505050505050505050505050565b6000600854821115610db05760405162461bcd60e51b815260040161046290614453565b60008281526006602052604090205460ff16600781111561072457634e487b7160e01b600052602160045260246000fd5b610de961332c565b610df36000613386565b565b60008381526004602052604090205483906001600160a01b03163314610e2d5760405162461bcd60e51b815260040161046290614512565b600084815260066020526040902054849060019060ff166007811115610e6357634e487b7160e01b600052602160045260246000fd5b816007811115610e8357634e487b7160e01b600052602160045260246000fd5b14610ea05760405162461bcd60e51b8152600401610462906144a3565b6000868152600660209081526040808320805460ff191660021781556007909252909120610ecf908787613793565b5050505050505050565b600080600260008481526006602052604090205460ff166007811115610f0f57634e487b7160e01b600052602160045260246000fd5b1415610f5d5760405162461bcd60e51b815260206004820152601a60248201527f6167677265676174656420706b206973206e6f742072656164790000000000006044820152606401610462565b5050600090815260066020526040902060028101546003909101549091565b600083815260066020526040902054839060039060ff166007811115610fb257634e487b7160e01b600052602160045260246000fd5b816007811115610fd257634e487b7160e01b600052602160045260246000fd5b14610fef5760405162461bcd60e51b8152600401610462906144a3565b600085815260066020819052604090912060018101549181018054889390811061102957634e487b7160e01b600052603260045260246000fd5b6000918252602090912001546001600160a01b031633148061108557508060070181600101548154811061106d57634e487b7160e01b600052603260045260246000fd5b6000918252602090912001546001600160a01b031633145b6110a15760405162461bcd60e51b81526004016104629061447b565b6000878152600560209081526040808320815160608082018452915460ff8082168352610100820416828601526001600160a01b036201000090910481168285019081528d875260068652958490209551845180860186528d5181528d8701518188015285516080810187528e8701518188019081528f87015196820196909652948552855180870190965292969591169363c32e370e9391820190808e6004602002015181526020018e60056008811061116c57634e487b7160e01b600052603260045260246000fd5b60200201519052905260408051808201909152808d6006602002015181526020018d6007600881106111ae57634e487b7160e01b600052603260045260246000fd5b60200201519052604051632cd0e50560e11b8152600a8701600482015273__$d47becb81019548f7f576af8d4fb3b3fb3$__9063b5b19c4d908e9083906359a1ca0a9060240160006040518083038186803b15801561120c57600080fd5b505af4158015611220573d6000803e3d6000fd5b505050506040513d6000823e601f3d908101601f191682016040526112489190810190613c06565b6004808b015460028c015460038d01546040516001600160e01b031960e089901b16815261127896959401614549565b60006040518083038186803b15801561129057600080fd5b505af41580156112a4573d6000803e3d6000fd5b505050506040513d6000823e601f3d908101601f191682016040526112cc9190810190613bb0565b6040518563ffffffff1660e01b81526004016112eb9493929190614337565b60006040518083038186803b15801561130357600080fd5b505afa158015611317573d6000803e3d6000fd5b50506040516367769b9360e01b815273__$d47becb81019548f7f576af8d4fb3b3fb3$__92506367769b939150611357908a90600a86019060040161458c565b60006040518083038186803b15801561136f57600080fd5b505af4158015611383573d6000803e3d6000fd5b50505050600181600101600082825461139c9190614691565b90915550506006810154600182015414156113c657600060018201556113c189612507565b6113f4565b886000805160206147a9833981519152826001015460036040516113eb9291906145ae565b60405180910390a25b505050505050505050565b6000828152600660205260409020805482919060ff1916600183600781111561143857634e487b7160e01b600052602160045260246000fd5b02179055505050565b60608060608061145d6040518060200160405280600081525090565b604080516020810190915260008152604080516020810190915260008152600088815260066020908152604091829020600b01805483518184028101840190945280845290918301828280156114d257602002820191906000526020600020905b8154815260200190600101908083116114be575b5050505050965060066000898152602001908152602001600020600a0160030180548060200260200160405190810160405280929190818152602001828054801561153c57602002820191906000526020600020905b815481526020019060010190808311611528575b5050505050945060066000898152602001908152602001600020600a016002018054806020026020016040519081016040528092919081815260200182805480156115a657602002820191906000526020600020905b815481526020019060010190808311611592575b5050505050955060066000898152602001908152602001600020600a0160040180548060200260200160405190810160405280929190818152602001828054801561161057602002820191906000526020600020905b8154815260200190600101908083116115fc575b5050505050935060066000898152602001908152602001600020600a01600501604051806020016040529081600082015481525050925060066000898152602001908152602001600020600a01600601604051806020016040529081600082015481525050915060066000898152602001908152602001600020600a016008016040518060200160405290816000820154815250509050919395979092949650565b6000806008600081546116c49061471e565b91829055506000818152600560209081526040808320805461ff00191661010060ff8a160217905560048083528184208054336001600160a01b0319909116811790915560068452828520805460ff1916600117815583516337cf533160e01b815293519697509590936337cf5331938084019391929190829003018186803b15801561175057600080fd5b505afa158015611764573d6000803e3d6000fd5b505050506040513d601f19601f820116820180604052508101906117889190613bea565b60028111156117a757634e487b7160e01b600052602160045260246000fd5b1415611808576001805460008481526005602081905260408220805461ff01600160b01b0319166001600160a01b03909416620100000260ff19908116949094179091179055600a84018054919390929190911690835b0217905550611a1f565b6001336001600160a01b03166337cf53316040518163ffffffff1660e01b815260040160206040518083038186803b15801561184357600080fd5b505afa158015611857573d6000803e3d6000fd5b505050506040513d601f19601f8201168201806040525081019061187b9190613bea565b600281111561189a57634e487b7160e01b600052602160045260246000fd5b14156118ef576002546000838152600560205260409020805460ff19620100006001600160a01b0390941693909302831661ff01600160b01b031990911617601e179055600a820180546001921682806117fe565b6002336001600160a01b03166337cf53316040518163ffffffff1660e01b815260040160206040518083038186803b15801561192a57600080fd5b505afa15801561193e573d6000803e3d6000fd5b505050506040513d601f19601f820116820180604052508101906119629190613bea565b600281111561198157634e487b7160e01b600052602160045260246000fd5b14156119d7576003546000838152600560205260409020805460ff19620100006001600160a01b0390941693909302831661ff01600160b01b0319909116176034179055600a82018054600292166001836117fe565b60405162461bcd60e51b815260206004820152601960248201527f556e737570706f727465642073697a65206f66206465636b2e000000000000006044820152606401610462565b6040516394c80c6b60e01b8152600a8201600482015273__$d47becb81019548f7f576af8d4fb3b3fb3$__906394c80c6b9060240160006040518083038186803b158015611a6c57600080fd5b505af4158015611a80573d6000803e3d6000fd5b50939695505050505050565b60008581526004602052604090205485906001600160a01b03163314611ac45760405162461bcd60e51b815260040161046290614512565b6000868152600660209081526040808320888452600581019092529091205460ff86161115611b355760405162461bcd60e51b815260206004820152601e60248201527f646f6e2774206861766520656e6f756768206361726420746f206f70656e00006044820152606401610462565b805461ff00191661010060ff871602178155600181018690556000878152600760205260409020611b67908585613793565b50805460ff19166005908117825560405188916000805160206147a98339815191529161097a918a916145ae565b600084815260066020526040902054849060059060ff166007811115611bcb57634e487b7160e01b600052602160045260246000fd5b816007811115611beb57634e487b7160e01b600052602160045260246000fd5b14611c085760405162461bcd60e51b8152600401610462906144a3565b6000868152600660208190526040909120600181015491810180548993908110611c4257634e487b7160e01b600052603260045260246000fd5b6000918252602090912001546001600160a01b0316331480611c9e575080600701816001015481548110611c8657634e487b7160e01b600052603260045260246000fd5b6000918252602090912001546001600160a01b031633145b611cba5760405162461bcd60e51b81526004016104629061447b565b60008881526005602090815260408083208151606081018352905460ff80821683526101008204811683860152620100009091046001600160a01b0316828401528c855260069093529083208151919390929091611d1a918c9116612635565b8254909150610100900460ff168114611d915760405162461bcd60e51b815260206004820152603360248201527f63617264732070617373656420627920706c6179657220646f65736e2774206d60448201527230ba31b410373ab6b132b9103a379037b832b760691b6064820152608401610462565b80895114611de15760405162461bcd60e51b815260206004820152601a60248201527f6e756d626572206f662070726f6f66732069732077726f6e67210000000000006044820152606401610462565b80885114611e015760405162461bcd60e51b8152600401610462906144cf565b60408051808201909152600080825260208201819052805b855160ff16811015611ebc57611e2f8d82612e45565b15611e9d57611e8f8e828e8581518110611e5957634e487b7160e01b600052603260045260246000fd5b60200260200101518e8681518110611e8157634e487b7160e01b600052603260045260246000fd5b602002602001015187612ea0565b81611e998161471e565b9250505b83821415611eaa57611ebc565b80611eb48161471e565b915050611e19565b50835461ff00191684556001840154600090815260058501602052604081208054859290611eeb9084906146a9565b90915550611efa90508d612507565b50505050505050505050505050565b600084815260066020526040812054859060029060ff166007811115611f3f57634e487b7160e01b600052602160045260246000fd5b816007811115611f5f57634e487b7160e01b600052602160045260246000fd5b14611f7c5760405162461bcd60e51b8152600401610462906144a3565b611f8685856133d8565b611fc75760405162461bcd60e51b8152602060048201526012602482015271496e76616c6964207075626c6963206b657960701b6044820152606401610462565b60008781526005602090815260408083208151606081018352905460ff808216835261010082048116838601908152620100009092046001600160a01b0316838501528c8652600694859052929094209351928401549093929091161161205c5760405162461bcd60e51b815260206004820152600960248201526811d85b5948199d5b1b60ba1b6044820152606401610462565b600681018054600180820183556000928352602080842083018054336001600160a01b03199182161790915560078601805480850182559086528286200180549091166001600160a01b038e161790556008850180548084018255908552818520018b9055600985018054928301815584529092209091018790559450846120f1576002810187905560038101869055612110565b612105816002015482600301548989613482565b600383015560028201555b604080518681523360208201528a917f8c0cb3290f4d566876f8041fca1da8916de98af44c6c93bc495f6e9cebcec8ca910160405180910390a26001826020015161215b91906146c0565b60ff1685141561218d576000805160206147898339815191528160030154826002015409600482015561218d89612507565b50505050949350505050565b6000828152600660205260408120815b6006820154811015612212578160060181815481106121d857634e487b7160e01b600052603260045260246000fd5b6000918252602090912001546001600160a01b03858116911614156122005791506107249050565b8061220a8161471e565b9150506121a9565b50620f423f949350505050565b60006008548211156122435760405162461bcd60e51b815260040161046290614453565b5060009081526005602052604090205460ff1690565b60008181526004602081815260408084205481516337cf533160e01b815291516001600160a01b03909116936337cf5331938382019390929190829003018186803b1580156122a757600080fd5b505afa1580156122bb573d6000803e3d6000fd5b505050506040513d601f19601f820116820180604052508101906107249190613bea565b60008181526004602052604090205481906001600160a01b031633146123175760405162461bcd60e51b815260040161046290614512565b6000828152600660209081526040808320805460ff191660071781556004909252822080546001600160a01b0319169055905b60068201548110156104a357836000805160206147a98339815191528260076040516123779291906145ae565b60405180910390a2806123898161471e565b91505061234a565b61239961332c565b6001600160a01b0381166123fe5760405162461bcd60e51b815260206004820152602660248201527f4f776e61626c653a206e6577206f776e657220697320746865207a65726f206160448201526564647265737360d01b6064820152608401610462565b61240781613386565b50565b60008381526004602052604090205483906001600160a01b031633146124425760405162461bcd60e51b815260040161046290614512565b60008481526006602052604090206001810154156124ae5760405162461bcd60e51b815260206004820152602360248201527f77726f6e6720706c6179657220696e64657820746f2073746172742073687566604482015262666c6560e81b6064820152608401610462565b805460ff1916600317815560008581526007602052604090206124d2908585613793565b50846000805160206147a9833981519152826001015460036040516124f89291906145ae565b60405180910390a25050505050565b60008181526007602052604090208054612520906146e3565b15905061240757600081815260046020908152604080832054600790925280832090516001600160a01b0390921691612559919061423f565b6000604051808303816000865af19150503d8060008114612596576040519150601f19603f3d011682016040523d82523d6000602084013e61259b565b606091505b50509050806125ec5760405162461bcd60e51b815260206004820152601b60248201527f4572726f722063616c6c696e672067616d6520636f6e747261637400000000006044820152606401610462565b5050565b6125ec82826040516024016126069291906143f8565b60408051601f198184030181529190526020810180516001600160e01b0316632d839cb360e21b1790526135d0565b6000805b828110156126705761264b8482612e45565b1561265e578161265a8161471e565b9250505b806126688161471e565b915050612639565b5092915050565b61267f613817565b6040518061068001604052807f0bb77a6ad63e739b4eacb2e09d6277c12ab8d8010534e0b62893f3f6bb95705181526020017f162d7e417903fa1c82f2d227e35b846b1133cfca4f558b5feb9fdcd5f81dd90281526020017f061c1436d1c3008037e887c8234dcf7c33c947ad93695b8000fcb4ab70477e3e81526020017f1b16e357953d68d73398c838aa883cc65ddae2aef75a4bc437e4232afdbe43c881526020017f1961ff2315812fd2f3e459a258f5ded2dde68cd35c79c8b9fb443e1860e1fbe481526020017f172dba8d231345b865223308fe44ba307c159de512787257113e2a7137f831b481526020017f2c6bfc7fe056ed38e26ec136ec8aec5f63ecc4b52c44afba967649cf1e6e231181526020017f10c347ae3592776a678f9fc29ecd029f8297367209a4f28f7cb49b09bffd414581526020017f0a677185fd6cd905b6a544b1006f4b3ea4a0dd596d47cabdab76a305859d928f81526020017e56bb35a182e54545be6d1ea242a6b0afdaecc266c1aadfb94d32b8d5c3dc9681526020017f2fc449e2dd0c5349d06092adc126e213858984584e429842d87bcc705837c76581526020017f1e63a5693d8b144378b08379f7ffdcabeb15e2e1490037b346c892925926574c81526020017f05d90e36c0fc967d6887b01380ca8f7264e45fd56692179d6346636a0ce10a6981526020017f0ddd95af0dc7f8e96c42e8f3691617c0db82583abe3b5e9187051005b9d6cd6181526020017f0d2c8ddcfdd735e9fdd0d51538022ba533cfa83b81d2acec70b17f505c17f04881526020017f2d66d2bb7bd385a5e2965d03466bc0579ce96b37ef9541be1aff46d01226964881526020017f1dfcdbf7e39fd2a9abeb0bba9446dc44db475f7a7533b645b568483ef44445c181526020017f0973a33d37dcd6bac5fbb80bd94667df758a27a55f74f2f47e9f346dd3599e5b81526020017f07ea98448dca17ae8d59c3e84258ae1b8e6b603cc01d67c6a65d88ba0119879d81526020017f28f4a492bbfdf5eed5ad1b304b95fb96040be5e4281bd288b1955f61bfac0afa81526020017f04c35ccbb891b482efb0d9615a446bf4965e59c524c5e99e5048d21370c4d17181526020017f0403f4c5f05d58ecdd3cba7f28c8a0cff1200cc996701751bd159f7a929a83ae81526020017f080bb2c9aa710cdece43712df035d5580ee2f909f70c86f3ee311a1bf11ec90e81526020017f2822909a7b938c9f0f2032d0004b3364f776e7097baf972e96b53a0af21e46cf81526020017f0b720cb8666a37228a60d13a78a44d755167cc280f0954db82b110cdec03dd2981526020017f1a0ca12c0b9d5ceaee4e186c1eb77be10992112608ce9b20abeec370ac26a2d881526020017f216b057078fda7e68f74840d69ddd2d9339fa5087224930aeb7b917c6b177ddd81526020017f239a26d12954771a03d624b21a260f447412b746b66eede628a2f0af3be0a21281526020017f2290daef092cdb12c7c1d72dd140aa1025d8e8c07373278b43229b7cc0ca11a381526020017f1de5305a20483a9b39f575599249f4aef3d3e9fc48c762a9751eebef9612bee281526020017f1390b1c9d9a82d2159b46c2bb964b4b2f33fce1689896c95545db5582db57f2e81526020017f26fea02c1cb0b62f637363a8456633b4fce66bff1447b0c5b9e86c0d74b80e8f81526020017f277f7b5cc9bfe6b5986519722f530a0573e13bb9e79b3d53b89b9bdcb8212d3f81526020017f1547e0c5efe888ce946b013b8243b78a5f678ea941c867f5892706ff56e4816481526020017f2ad530c497ea4713f4970a7f62956537cfc8588f07ddc027dd4fd0c6c10e5a4381526020017f1056ab97cf05bcdb2105fbc0b84f38b0965027abf7ca5361ac09f68adeb56eed81526020017f226bea5ceca4c99040ef2ebf3c5c51cfc588f331437889263f1a2b987d24fd8481526020017f0c52c9ec80c576338a26cdde50a9e65e85b87472c7fa91e20e755826d904f62b81526020017f2aebb7ffc8598c5238f2fdb7cb853b11eef3b252d7ebe49f6ef75ec72e38ec4f81526020017f092d4b125f827c10993cfadbfc2596532d4065212df9f63a767e853152cf132381526020017f1cc142514ccfce20877d91b82265542f585acc7abd05bb4ccbba837abced761a81526020017f06184da392a17823e9c1d38cb50980b17150ffa411965b03f0b0200d9557daa981526020017f2de1f83ba2bf5ef20a63881b4af4fb1149cc71d27a9d3f7471d3bab13401d72e81526020017f294b01e9bef3cbeec553d6e01ae9c7e9f0da12a81d5f874fa8820850b29446ef81526020017f1f5b4e9c9f3998ac1115c24cff5d56475b73fe0600bec2656accb54c6858db1081526020017f15ed766f45161e8cf3f750978ea18828b8cdf8211494307002aac2bb8194464281526020017f1d98dcee4ad7e854ab175c4c9d2596db3ff4d366f2b4768245f1b191c9abd2dc81526020017f0eea43c2e39c9465cfc56a2b80f746b1ff0389129e0eedf33600020246d66e1281526020017f267076b8c3d79269cb83185bd7758f05fb0029c23e2f429ac2a16cc7b449a17981526020017f1930694c542b3f428ca02285f978b47ecf06de207dc299736c06766d7f2e17e681526020017f23f14882a28cc7ba2b752c5eb037c0606451d81fc6a58b4c647e7fca3c3e941c81526020017f081ee42bc135a4e8e89208103bdf883a591cab8babacfcf201789f78bf9bcb31815250905090565b60006101008210612e8d5760405162461bcd60e51b8152602060048201526012602482015271696e646578206f7574206f662072616e676560701b6044820152606401610462565b508151600160ff83161b16151592915050565b60008581526006602090815260408083208784526011810183529281902081519283019091525481526001820154612ed89190612e45565b15612f395760405162461bcd60e51b815260206004820152602b60248201527f5468697320706c6179657220686173206465637279707465642074686973206360448201526a61726420616c726561647960a81b6064820152608401610462565b600085815260118201602052604090205461306057612fa781600a016001018681548110612f7757634e487b7160e01b600052603260045260246000fd5b600091825260209182902001548451604080519384019052600f85015483529091612fa29089612e45565b6135f1565b600d8201805487908110612fcb57634e487b7160e01b600052603260045260246000fd5b906000526020600020018190555061302f81600a01600201868154811061300257634e487b7160e01b600052603260045260246000fd5b6000918252602091829020015484820151604080519384019052601085015483529091612fa29089612e45565b600e820180548790811061305357634e487b7160e01b600052603260045260246000fd5b6000918252602090912001555b6000546040805180820182528651815260208088015181830152825160808082018552898501518286019081526060808c015190840152825284518086018652908a0151815260a08a015181840152818301528351808501855260c08a0151815260e08a015181840152845161010081018652895181528984015193810193909352600b870180546001600160a01b039097169663c9219a7a9693949293830191908d90811061312057634e487b7160e01b600052603260045260246000fd5b9060005260206000200154815260200187600a016003018c8154811061315657634e487b7160e01b600052603260045260246000fd5b9060005260206000200154815260200187600a016002018c8154811061318c57634e487b7160e01b600052603260045260246000fd5b9060005260206000200154815260200187600a016004018c815481106131c257634e487b7160e01b600052603260045260246000fd5b90600052602060002001548152602001876008018860010154815481106131f957634e487b7160e01b600052603260045260246000fd5b906000526020600020015481526020018760090188600101548154811061323057634e487b7160e01b600052603260045260246000fd5b90600052602060002001548152506040518563ffffffff1660e01b815260040161325d94939291906142da565b60006040518083038186803b15801561327557600080fd5b505afa158015613289573d6000803e3d6000fd5b50505050826000015181600a0160020186815481106132b857634e487b7160e01b600052603260045260246000fd5b9060005260206000200181905550826020015181600a0160040186815481106132f157634e487b7160e01b600052603260045260246000fd5b60009182526020808320909101929092558681526011830190915260409020600180830154825460ff9091169190911b179055505050505050565b6009546001600160a01b03163314610df35760405162461bcd60e51b815260206004820181905260248201527f4f776e61626c653a2063616c6c6572206973206e6f7420746865206f776e65726044820152606401610462565b600980546001600160a01b038381166001600160a01b0319831681179093556040519116919082907f8be0079c531659141344cd1fd0a4f28419497f9722a3daafe3b4186f6b6457e090600090a35050565b60008060008051602061478983398151915284850990506000600080516020614789833981519152848509905060006000805160206147898339815191528260008051602061478983398151915285620292fc090890506000600080516020614789833981519152808460008051602061478983398151915287620292f80909600108905061347682826000805160206147898339815191526136d8565b15979650505050505050565b60008085158015613491575084155b156134a05750829050816135c7565b831580156134ac575084155b156134bb5750849050836135c7565b6000600080516020614789833981519152858809905060006000805160206147898339815191528588099050600060008051602061478983398151915280838509620292f8099050600060008051602061478983398151915280898b09600080516020614789833981519152898d09089050600061355c8460008051602061478983398151915287620292fc096000805160206147898339815191526136d8565b905060008051602061478983398151915261358860008051602061478983398151915285600108613721565b830996506000805160206147898339815191526135bd6135b86001866000805160206147898339815191526136d8565b613721565b8209955050505050505b94509492505050565b80516a636f6e736f6c652e6c6f67602083016000808483855afa5050505050565b60007f183227397098d014dc2822db40c0ac2e9419f4243cdcb848a1f0fac9f80000008311156136535760405162461bcd60e51b815260206004820152600d60248201526c496e76616c69642064656c746160981b6044820152606401610462565b61365d84846133d8565b6136a95760405162461bcd60e51b815260206004820152601860248201527f4e6f74206f6e2062616279206a75626a756220637572766500000000000000006044820152606401610462565b81156136b65750816136d1565b6136ce836000805160206147898339815191526146a9565b90505b9392505050565b6000838381116136ef576136ec8382614691565b90505b828061370b57634e487b7160e01b600052601260045260246000fd5b600061371786846146a9565b0895945050505050565b60006107248261374060026000805160206147898339815191526146a9565b600080516020614789833981519152600060405160208152602080820152602060408201528460608201528360808201528260a082015260208160c08360055afa8080156101c457505051949350505050565b82805461379f906146e3565b90600052602060002090601f0160209004810192826137c15760008555613807565b82601f106137da5782800160ff19823516178555613807565b82800160010185558215613807579182015b828111156138075782358255916020019190600101906137ec565b50613813929150613836565b5090565b6040518061068001604052806034906020820280368337509192915050565b5b808211156138135760008155600101613837565b6000604051604081018181106001600160401b038211171561386f5761386f614765565b8060405250809150828460408501111561388857600080fd5b60005b60028110156138aa57813583526020928301929091019060010161388b565b50505092915050565b80356001600160a01b03811681146138ca57600080fd5b919050565b600082601f8301126138df578081fd5b813560206138f46138ef8361466e565b61463e565b80838252828201915082860187848660081b8901011115613913578586fd5b855b8581101561393d5761392789836139c9565b8452928401926101009190910190600101613915565b5090979650505050505050565b600082601f83011261395a578081fd5b8135602061396a6138ef8361466e565b80838252828201915082860187848660061b8901011115613989578586fd5b855b8581101561393d57604080838b0312156139a3578788fd5b6139ab6145d2565b8335815286840135878201528552938501939091019060010161398b565b600082601f8301126139d9578081fd5b6040516101008082018281106001600160401b03821117156139fd576139fd614765565b6040528184828101871015613a10578485fd5b8492505b6008831015613a3457803582526001929092019160209182019101613a14565b509195945050505050565b600082601f830112613a4f578081fd5b81356020613a5f6138ef8361466e565b80838252828201915082860187848660051b8901011115613a7e578586fd5b855b8581101561393d57813584529284019290840190600101613a80565b600082601f830112613aac578081fd5b81516020613abc6138ef8361466e565b80838252828201915082860187848660051b8901011115613adb578586fd5b855b8581101561393d57815184529284019290840190600101613add565b60008083601f840112613b0a578182fd5b5081356001600160401b03811115613b20578182fd5b602083019150836020828501011115613b3857600080fd5b9250929050565b600060208284031215613b50578081fd5b613b586145fa565b9135825250919050565b600060208284031215613b73578081fd5b613b7b6145fa565b9151825250919050565b803560ff811681146138ca57600080fd5b600060208284031215613ba7578081fd5b6136d1826138b3565b600060208284031215613bc1578081fd5b81516001600160401b03811115613bd6578182fd5b613be284828501613a9c565b949350505050565b600060208284031215613bfb578081fd5b81516136d18161477b565b600060208284031215613c17578081fd5b81516001600160401b0380821115613c2d578283fd5b9083019060a08286031215613c40578283fd5b613c4861461c565b8251613c538161477b565b8152602083015182811115613c66578485fd5b613c7287828601613a9c565b602083015250604083015182811115613c89578485fd5b613c9587828601613a9c565b604083015250613ca88660608501613b62565b6060820152613cba8660808501613b62565b608082015295945050505050565b600060208284031215613cd9578081fd5b5035919050565b60008060408385031215613cf2578081fd5b82359150613d02602084016138b3565b90509250929050565b60008060008060808587031215613d20578182fd5b84359350613d30602086016138b3565b93969395505050506040820135916060013590565b60008060008060808587031215613d5a578182fd5b843593506020808601356001600160401b0380821115613d78578485fd5b613d8489838a016138cf565b9550604091508188013581811115613d9a578586fd5b613da68a828b0161394a565b955050606088013581811115613dba578485fd5b88019050601f8082018a13613dcd578485fd5b8135613ddb6138ef8261466e565b8082825286820191508685018d888560061b8801011115613dfa578889fd5b8895505b83861015613e31578d85820112613e13578889fd5b613e1d8e8261384b565b835260019590950194918701918601613dfe565b50999c989b5096995050505050505050565b60008060006101408486031215613e58578081fd5b83359250613e6985602086016139c9565b91506101208401356001600160401b0380821115613e85578283fd5b9085019060a08288031215613e98578283fd5b613ea061461c565b8235613eab8161477b565b8152602083013582811115613ebe578485fd5b613eca89828601613a3f565b602083015250604083013582811115613ee1578485fd5b613eed89828601613a3f565b604083015250613f008860608501613b3f565b6060820152613f128860808501613b3f565b60808201528093505050509250925092565b600080600060408486031215613f38578081fd5b8335925060208401356001600160401b03811115613f54578182fd5b613f6086828701613af9565b9497909650939450505050565b60008060408385031215613f7f578182fd5b82359150602083013560088110613f94578182fd5b809150509250929050565b60008060008060808587031215613fb4578182fd5b84359350613fc58660208701613b3f565b925060408501356001600160401b0380821115613fe0578384fd5b613fec888389016138cf565b93506060870135915080821115614001578283fd5b5061400e8782880161394a565b91505092959194509250565b600080600080600060808688031215614031578283fd5b853594506140428760208801613b3f565b93506040860135925060608601356001600160401b03811115614063578182fd5b61406f88828901613af9565b969995985093965092949392505050565b60008060408385031215614092578182fd5b50508035926020909101359150565b6000806000806000608086880312156140b8578283fd5b85359450602086013593506140cf60408701613b85565b925060608601356001600160401b03811115614063578182fd5b6000806000606084860312156140fd578081fd5b8335925061410d60208501613b85565b915061411b60408501613b85565b90509250925092565b600060208284031215614135578081fd5b6136d182613b85565b8060005b60028110156104a35761415684835161416c565b6040939093019260209190910190600101614142565b8060005b60028110156104a3578151845260209384019390910190600101614170565b6000815180845260208085019450808401835b838110156141be578151875295820195908201906001016141a2565b509495945050505050565b600381106141d9576141d961474f565b9052565b6141e88282516141c9565b6000602082015160a0602085015261420360a085018261418f565b90506040830151848203604086015261421c828261418f565b915050606083015151606085015260808301515160808501528091505092915050565b600080835482600182811c91508083168061425b57607f831692505b602080841082141561427b57634e487b7160e01b87526022600452602487fd5b81801561428f57600181146142a0576142cc565b60ff198616895284890196506142cc565b60008a815260209020885b868110156142c45781548b8201529085019083016142ab565b505084890196505b509498975050505050505050565b61020081016142e9828761416c565b6142f6604083018661413e565b61430360c083018561416c565b61010082018360005b600881101561432b57815183526020928301929091019060010161430c565b50505095945050505050565b6000610120614346838861416c565b614353604084018761413e565b61436060c084018661416c565b806101008401526143738184018561418f565b979650505050505050565b60e08152600061439160e083018a61418f565b82810360208401526143a3818a61418f565b905082810360408401526143b7818961418f565b905082810360608401526143cb818861418f565b955160808401525050915160a08301525160c090910152949350505050565b6020810161072482846141c9565b6040815260008351806040840152815b818110156144255760208187018101516060868401015201614408565b818111156144365782606083860101525b50602083019390935250601f91909101601f191601606001919050565b6020808252600e908201526d125b9d985b1a590819d85b59525960921b604082015260600190565b6020808252600e908201526d6e6f7420796f7572207475726e2160901b604082015260600190565b60208082526012908201527110da1958dac81cdd185d194819985a5b195960721b604082015260600190565b60208082526023908201527f6e756d626572206f66206465637279707465642063617264732069732077726f6040820152626e672160e81b606082015260800190565b60208082526019908201527f43616c6c6572206973206e6f742067616d65206f776e65722e00000000000000604082015260600190565b60a08152600061455c60a08301886141dd565b828103602084015261456e81886141dd565b60408401969096525050606081019290925260809091015292915050565b60408152600061459f60408301856141dd565b90508260208301529392505050565b82815260408101600883106145c5576145c561474f565b8260208301529392505050565b604080519081016001600160401b03811182821017156145f4576145f4614765565b60405290565b604051602081016001600160401b03811182821017156145f4576145f4614765565b60405160a081016001600160401b03811182821017156145f4576145f4614765565b604051601f8201601f191681016001600160401b038111828210171561466657614666614765565b604052919050565b60006001600160401b0382111561468757614687614765565b5060051b60200190565b600082198211156146a4576146a4614739565b500190565b6000828210156146bb576146bb614739565b500390565b600060ff821660ff8416808210156146da576146da614739565b90039392505050565b600181811c908216806146f757607f821691505b6020821081141561471857634e487b7160e01b600052602260045260246000fd5b50919050565b600060001982141561473257614732614739565b5060010190565b634e487b7160e01b600052601160045260246000fd5b634e487b7160e01b600052602160045260246000fd5b634e487b7160e01b600052604160045260246000fd5b6003811061240757600080fdfe30644e72e131a029b85045b68181585d2833e84879b9709143e1f593f0000001bfd41db4bc23153024e205447615431e6600eddc0989e56f47eb218514b2682aa26469706673582212206d3917e09c263949f9c9264f0045d431eae36d6f6ca781b195994782797e336664736f6c63430008040033",
    "linkReferences": {
        "artifacts/cache/solpp-generated-contracts/shuffle/Deck.sol": {
            "zkShuffleCrypto": [
                {
                    "length": 20,
                    "start": 4924
                },
                {
                    "length": 20,
                    "start": 5271
                },
                {
                    "length": 20,
                    "start": 7078
                }
            ]
        }
    },
    "deployedLinkReferences": {
        "artifacts/cache/solpp-generated-contracts/shuffle/Deck.sol": {
            "zkShuffleCrypto": [
                {
                    "length": 20,
                    "start": 4557
                },
                {
                    "length": 20,
                    "start": 4904
                },
                {
                    "length": 20,
                    "start": 6711
                }
            ]
        }
    }
}