{
  "_format": "hh-sol-artifact-1",
  "contractName": "ShuffleManager",
  "sourceName": "artifacts/cache/solpp-generated-contracts/shuffle/ShuffleManager.sol",
  "abi": [
    {
      "inputs": [
        {
          "internalType": "address",
          "name": "decryptVerifier_",
          "type": "address"
        },
        {
          "internalType": "address",
          "name": "deck52EncVerifier",
          "type": "address"
        },
        {
          "internalType": "address",
          "name": "deck30EncVerifier",
          "type": "address"
        },
        {
          "internalType": "address",
          "name": "deck5EncVerifier",
          "type": "address"
        }
      ],
      "stateMutability": "nonpayable",
      "type": "constructor"
    },
    {
      "anonymous": false,
      "inputs": [
        {
          "indexed": false,
          "internalType": "address",
          "name": "caller",
          "type": "address"
        },
        {
          "indexed": false,
          "internalType": "bytes",
          "name": "data",
          "type": "bytes"
        }
      ],
      "name": "GameContractCallError",
      "type": "event"
    },
    {
      "anonymous": false,
      "inputs": [
        {
          "indexed": true,
          "internalType": "address",
          "name": "previousOwner",
          "type": "address"
        },
        {
          "indexed": true,
          "internalType": "address",
          "name": "newOwner",
          "type": "address"
        }
      ],
      "name": "OwnershipTransferred",
      "type": "event"
    },
    {
      "anonymous": false,
      "inputs": [
        {
          "indexed": false,
          "internalType": "uint256",
          "name": "gameId",
          "type": "uint256"
        },
        {
          "indexed": false,
          "internalType": "uint256",
          "name": "playerIndex",
          "type": "uint256"
        },
        {
          "indexed": false,
          "internalType": "enum BaseState",
          "name": "state",
          "type": "uint8"
        }
      ],
      "name": "PlayerTurn",
      "type": "event"
    },
    {
      "anonymous": false,
      "inputs": [
        {
          "indexed": true,
          "internalType": "uint256",
          "name": "gameId",
          "type": "uint256"
        },
        {
          "indexed": false,
          "internalType": "uint256",
          "name": "playerId",
          "type": "uint256"
        },
        {
          "indexed": false,
          "internalType": "address",
          "name": "playerAddr",
          "type": "address"
        }
      ],
      "name": "Register",
      "type": "event"
    },
    {
      "inputs": [],
      "name": "INVALID_INDEX",
      "outputs": [
        {
          "internalType": "uint256",
          "name": "",
          "type": "uint256"
        }
      ],
      "stateMutability": "view",
      "type": "function"
    },
    {
      "inputs": [
        {
          "internalType": "uint256",
          "name": "gameId",
          "type": "uint256"
        }
      ],
      "name": "cardConfig",
      "outputs": [
        {
          "internalType": "enum DeckConfig",
          "name": "",
          "type": "uint8"
        }
      ],
      "stateMutability": "view",
      "type": "function"
    },
    {
      "inputs": [
        {
          "internalType": "uint8",
          "name": "numPlayers",
          "type": "uint8"
        }
      ],
      "name": "createShuffleGame",
      "outputs": [
        {
          "internalType": "uint256",
          "name": "",
          "type": "uint256"
        }
      ],
      "stateMutability": "nonpayable",
      "type": "function"
    },
    {
      "inputs": [
        {
          "internalType": "uint256",
          "name": "gameId",
          "type": "uint256"
        }
      ],
      "name": "curPlayerIndex",
      "outputs": [
        {
          "internalType": "uint256",
          "name": "",
          "type": "uint256"
        }
      ],
      "stateMutability": "view",
      "type": "function"
    },
    {
      "inputs": [
        {
          "internalType": "uint256",
          "name": "gameId",
          "type": "uint256"
        },
        {
          "components": [
            {
              "internalType": "uint256",
              "name": "_data",
              "type": "uint256"
            }
          ],
          "internalType": "struct BitMaps.BitMap256",
          "name": "cards",
          "type": "tuple"
        },
        {
          "internalType": "uint256",
          "name": "playerId",
          "type": "uint256"
        },
        {
          "internalType": "bytes",
          "name": "next",
          "type": "bytes"
        }
      ],
      "name": "dealCardsTo",
      "outputs": [],
      "stateMutability": "nonpayable",
      "type": "function"
    },
    {
      "inputs": [],
      "name": "decryptVerifier",
      "outputs": [
        {
          "internalType": "contract IDecryptVerifier",
          "name": "",
          "type": "address"
        }
      ],
      "stateMutability": "view",
      "type": "function"
    },
    {
      "inputs": [
        {
          "internalType": "uint256",
          "name": "gameId",
          "type": "uint256"
        }
      ],
      "name": "endGame",
      "outputs": [],
      "stateMutability": "nonpayable",
      "type": "function"
    },
    {
      "inputs": [
        {
          "internalType": "uint256",
          "name": "gameId",
          "type": "uint256"
        },
        {
          "internalType": "bytes",
          "name": "next",
          "type": "bytes"
        }
      ],
      "name": "error",
      "outputs": [],
      "stateMutability": "nonpayable",
      "type": "function"
    },
    {
      "inputs": [
        {
          "internalType": "uint256",
          "name": "gameId",
          "type": "uint256"
        }
      ],
      "name": "gameState",
      "outputs": [
        {
          "internalType": "uint256",
          "name": "",
          "type": "uint256"
        }
      ],
      "stateMutability": "view",
      "type": "function"
    },
    {
      "inputs": [
        {
          "internalType": "uint256",
          "name": "gameId",
          "type": "uint256"
        },
        {
          "internalType": "uint256",
          "name": "cardIdx",
          "type": "uint256"
        }
      ],
      "name": "getDecryptRecord",
      "outputs": [
        {
          "components": [
            {
              "internalType": "uint256",
              "name": "_data",
              "type": "uint256"
            }
          ],
          "internalType": "struct BitMaps.BitMap256",
          "name": "",
          "type": "tuple"
        }
      ],
      "stateMutability": "view",
      "type": "function"
    },
    {
      "inputs": [
        {
          "internalType": "uint256",
          "name": "gameId",
          "type": "uint256"
        }
      ],
      "name": "getNumCards",
      "outputs": [
        {
          "internalType": "uint256",
          "name": "",
          "type": "uint256"
        }
      ],
      "stateMutability": "view",
      "type": "function"
    },
    {
      "inputs": [
        {
          "internalType": "uint256",
          "name": "gameId",
          "type": "uint256"
        },
        {
          "internalType": "address",
          "name": "player",
          "type": "address"
        }
      ],
      "name": "getPlayerIdx",
      "outputs": [
        {
          "internalType": "uint256",
          "name": "",
          "type": "uint256"
        }
      ],
      "stateMutability": "view",
      "type": "function"
    },
    {
      "inputs": [],
      "name": "largestGameId",
      "outputs": [
        {
          "internalType": "uint256",
          "name": "",
          "type": "uint256"
        }
      ],
      "stateMutability": "view",
      "type": "function"
    },
    {
      "inputs": [
        {
          "internalType": "uint256",
          "name": "gameId",
          "type": "uint256"
        },
        {
          "internalType": "uint256",
          "name": "playerId",
          "type": "uint256"
        },
        {
          "internalType": "uint8",
          "name": "openningNum",
          "type": "uint8"
        },
        {
          "internalType": "bytes",
          "name": "next",
          "type": "bytes"
        }
      ],
      "name": "openCards",
      "outputs": [],
      "stateMutability": "nonpayable",
      "type": "function"
    },
    {
      "inputs": [],
      "name": "owner",
      "outputs": [
        {
          "internalType": "address",
          "name": "",
          "type": "address"
        }
      ],
      "stateMutability": "view",
      "type": "function"
    },
    {
      "inputs": [
        {
          "internalType": "uint256",
          "name": "gameId",
          "type": "uint256"
        },
        {
          "internalType": "uint256[8][]",
          "name": "proofs",
          "type": "uint256[8][]"
        },
        {
          "components": [
            {
              "internalType": "uint256",
              "name": "X",
              "type": "uint256"
            },
            {
              "internalType": "uint256",
              "name": "Y",
              "type": "uint256"
            }
          ],
          "internalType": "struct Card[]",
          "name": "decryptedCards",
          "type": "tuple[]"
        },
        {
          "internalType": "uint256[2][]",
          "name": "initDeltas",
          "type": "uint256[2][]"
        }
      ],
      "name": "playerDealCards",
      "outputs": [],
      "stateMutability": "nonpayable",
      "type": "function"
    },
    {
      "inputs": [
        {
          "internalType": "uint256",
          "name": "gameId",
          "type": "uint256"
        },
        {
          "components": [
            {
              "internalType": "uint256",
              "name": "_data",
              "type": "uint256"
            }
          ],
          "internalType": "struct BitMaps.BitMap256",
          "name": "cards",
          "type": "tuple"
        },
        {
          "internalType": "uint256[8][]",
          "name": "proofs",
          "type": "uint256[8][]"
        },
        {
          "components": [
            {
              "internalType": "uint256",
              "name": "X",
              "type": "uint256"
            },
            {
              "internalType": "uint256",
              "name": "Y",
              "type": "uint256"
            }
          ],
          "internalType": "struct Card[]",
          "name": "decryptedCards",
          "type": "tuple[]"
        }
      ],
      "name": "playerOpenCards",
      "outputs": [],
      "stateMutability": "nonpayable",
      "type": "function"
    },
    {
      "inputs": [
        {
          "internalType": "uint256",
          "name": "gameId",
          "type": "uint256"
        },
        {
          "internalType": "address",
          "name": "signingAddr",
          "type": "address"
        },
        {
          "internalType": "uint256",
          "name": "pkX",
          "type": "uint256"
        },
        {
          "internalType": "uint256",
          "name": "pkY",
          "type": "uint256"
        }
      ],
      "name": "playerRegister",
      "outputs": [
        {
          "internalType": "uint256",
          "name": "pid",
          "type": "uint256"
        }
      ],
      "stateMutability": "nonpayable",
      "type": "function"
    },
    {
      "inputs": [
        {
          "internalType": "uint256",
          "name": "gameId",
          "type": "uint256"
        },
        {
          "internalType": "uint256[8]",
          "name": "proof",
          "type": "uint256[8]"
        },
        {
          "components": [
            {
              "internalType": "enum DeckConfig",
              "name": "config",
              "type": "uint8"
            },
            {
              "internalType": "uint256[]",
              "name": "X0",
              "type": "uint256[]"
            },
            {
              "internalType": "uint256[]",
              "name": "X1",
              "type": "uint256[]"
            },
            {
              "components": [
                {
                  "internalType": "uint256",
                  "name": "_data",
                  "type": "uint256"
                }
              ],
              "internalType": "struct BitMaps.BitMap256",
              "name": "selector0",
              "type": "tuple"
            },
            {
              "components": [
                {
                  "internalType": "uint256",
                  "name": "_data",
                  "type": "uint256"
                }
              ],
              "internalType": "struct BitMaps.BitMap256",
              "name": "selector1",
              "type": "tuple"
            }
          ],
          "internalType": "struct CompressedDeck",
          "name": "compDeck",
          "type": "tuple"
        }
      ],
      "name": "playerShuffle",
      "outputs": [],
      "stateMutability": "nonpayable",
      "type": "function"
    },
    {
      "inputs": [
        {
          "internalType": "uint256",
          "name": "gameId",
          "type": "uint256"
        }
      ],
      "name": "queryAggregatedPk",
      "outputs": [
        {
          "internalType": "uint256",
          "name": "px",
          "type": "uint256"
        },
        {
          "internalType": "uint256",
          "name": "py",
          "type": "uint256"
        }
      ],
      "stateMutability": "view",
      "type": "function"
    },
    {
      "inputs": [
        {
          "internalType": "uint256",
          "name": "gameId",
          "type": "uint256"
        },
        {
          "internalType": "uint256",
          "name": "cardIndex",
          "type": "uint256"
        }
      ],
      "name": "queryCardValue",
      "outputs": [
        {
          "internalType": "uint256",
          "name": "",
          "type": "uint256"
        }
      ],
      "stateMutability": "view",
      "type": "function"
    },
    {
      "inputs": [
        {
          "internalType": "uint256",
          "name": "gameId",
          "type": "uint256"
        }
      ],
      "name": "queryDeck",
      "outputs": [
        {
          "internalType": "uint256[]",
          "name": "X0",
          "type": "uint256[]"
        },
        {
          "internalType": "uint256[]",
          "name": "X1",
          "type": "uint256[]"
        },
        {
          "internalType": "uint256[]",
          "name": "Y0",
          "type": "uint256[]"
        },
        {
          "internalType": "uint256[]",
          "name": "Y1",
          "type": "uint256[]"
        },
        {
          "components": [
            {
              "internalType": "uint256",
              "name": "_data",
              "type": "uint256"
            }
          ],
          "internalType": "struct BitMaps.BitMap256",
          "name": "selector0",
          "type": "tuple"
        },
        {
          "components": [
            {
              "internalType": "uint256",
              "name": "_data",
              "type": "uint256"
            }
          ],
          "internalType": "struct BitMaps.BitMap256",
          "name": "selector1",
          "type": "tuple"
        },
        {
          "components": [
            {
              "internalType": "uint256",
              "name": "_data",
              "type": "uint256"
            }
          ],
          "internalType": "struct BitMaps.BitMap256",
          "name": "cardsToDeal",
          "type": "tuple"
        }
      ],
      "stateMutability": "view",
      "type": "function"
    },
    {
      "inputs": [
        {
          "internalType": "uint256",
          "name": "gameId",
          "type": "uint256"
        },
        {
          "internalType": "bytes",
          "name": "next",
          "type": "bytes"
        }
      ],
      "name": "register",
      "outputs": [],
      "stateMutability": "nonpayable",
      "type": "function"
    },
    {
      "inputs": [],
      "name": "renounceOwnership",
      "outputs": [],
      "stateMutability": "nonpayable",
      "type": "function"
    },
    {
      "inputs": [
        {
          "internalType": "uint256",
          "name": "gameId",
          "type": "uint256"
        },
        {
          "internalType": "uint8",
          "name": "numCards",
          "type": "uint8"
        },
        {
          "internalType": "uint8",
          "name": "numPlayers",
          "type": "uint8"
        }
      ],
      "name": "set_gameInfo",
      "outputs": [],
      "stateMutability": "nonpayable",
      "type": "function"
    },
    {
      "inputs": [
        {
          "internalType": "uint256",
          "name": "gameId",
          "type": "uint256"
        },
        {
          "internalType": "enum BaseState",
          "name": "state",
          "type": "uint8"
        }
      ],
      "name": "set_gameState",
      "outputs": [],
      "stateMutability": "nonpayable",
      "type": "function"
    },
    {
      "inputs": [
        {
          "internalType": "uint256",
          "name": "gameId",
          "type": "uint256"
        },
        {
          "internalType": "bytes",
          "name": "next",
          "type": "bytes"
        }
      ],
      "name": "shuffle",
      "outputs": [],
      "stateMutability": "nonpayable",
      "type": "function"
    },
    {
      "inputs": [
        {
          "internalType": "address",
          "name": "newOwner",
          "type": "address"
        }
      ],
      "name": "transferOwnership",
      "outputs": [],
      "stateMutability": "nonpayable",
      "type": "function"
    }
  ],
  "bytecode": "0x60806040523480156200001157600080fd5b506040516200495938038062004959833981016040819052620000349162000103565b6200003f3362000094565b600380546001600160a01b03199081166001600160a01b03958616179091556002805482169385169390931790925560018054831691841691909117905560008054909116929091169190911790556200015f565b600980546001600160a01b038381166001600160a01b0319831681179093556040519116919082907f8be0079c531659141344cd1fd0a4f28419497f9722a3daafe3b4186f6b6457e090600090a35050565b80516001600160a01b0381168114620000fe57600080fd5b919050565b6000806000806080858703121562000119578384fd5b6200012485620000e6565b93506200013460208601620000e6565b92506200014460408601620000e6565b91506200015460608601620000e6565b905092959194509250565b6147ea806200016f6000396000f3fe608060405234801561001057600080fd5b50600436106101c45760003560e01c8063b42c2488116100f9578063c043e3b511610097578063f09db35711610071578063f09db357146103e7578063f2fde38b146103fa578063f3c7e26d1461040d578063fc7d66671461042057600080fd5b8063c043e3b5146103ab578063d0399bb8146103cb578063e489a3a8146103de57600080fd5b8063b74944ea116100d3578063b74944ea1461035f578063b853075414610372578063ba284c2114610385578063c033cc8d1461039857600080fd5b8063b42c248814610313578063b4764f5614610339578063b608151e1461034c57600080fd5b80634e0e1a3e1161016657806387aa5fef1161014057806387aa5fef146102a05780638da5cb5b146102c85780638e692857146102ed57806393aa38be1461030057600080fd5b80634e0e1a3e14610272578063715018a614610285578063765718d71461028d57600080fd5b8063261fe4ca116101a2578063261fe4ca146102175780632b218bd61461022a57806331d054561461024c5780634cc2dc7c1461025f57600080fd5b806303d3d0fd146101c95780631480a7b9146101de578063241f0c4f14610204575b600080fd5b6101dc6101d7366004613ef1565b61042a565b005b6101f16101ec366004613c95565b6104a9565b6040519081526020015b60405180910390f35b6101dc6102123660046140b6565b6104e3565b6101f161022536600461404d565b6105ac565b61023d61023836600461404d565b61072a565b604051905181526020016101fb565b6101dc61025a366004613fe7565b6107db565b6101dc61026d366004613d12565b61098c565b6101f1610280366004613c95565b610d7c565b6101dc610dd1565b6101dc61029b366004613ef1565b610de5565b6102b36102ae366004613c95565b610ec9565b604080519283526020830191909152016101fb565b6009546001600160a01b03165b6040516001600160a01b0390911681526020016101fb565b6101dc6102fb366004613e10565b610f6c565b6101dc61030e366004613f3a565b6113f0565b610326610321366004613c95565b611432565b6040516101fb979695949392919061434b565b6101f16103473660046140f1565b6116a3565b6101dc61035a36600461406e565b611a7d565b6101dc61036d366004613f6c565b611b86565b6101f1610380366004613cd8565b611ef4565b6101f1610393366004613cad565b612184565b6101f16103a6366004613c95565b61220a565b6103be6103b9366004613c95565b612244565b6040516101fb91906143b7565b6101dc6103d9366004613c95565b6122ca565b6101f160085481565b6000546102d5906001600160a01b031681565b6101dc610408366004613b63565b61237d565b6101dc61041b366004613ef1565b6123f6565b6101f1620f423f81565b60008381526004602052604090205483906001600160a01b0316331461046b5760405162461bcd60e51b8152600401610462906144df565b60405180910390fd5b6000848152600660208181526040808420805460ff1916909317909255600790529020610499908484613760565b506104a3846124f4565b50505050565b60006008548211156104cd5760405162461bcd60e51b815260040161046290614420565b5060009081526006602052604090206001015490565b6104ee836001614666565b6008556000838152600560208190526040909120805460ff85811661ffff19909216821761010091861691909102179091551415610560576001546000848152600560205260409020805462010000600160b01b0319166001600160a01b039092166201000002919091179055505050565b61059660405180604001604052806011815260200170024b73b30b634b210373ab6a1b0b932399607d1b8152508360ff166125bd565b634e487b7160e01b600052600160045260246000fd5b60008281526005602090815260408083208151606081018352905460ff808216835261010082048116838601908152620100009092046001600160a01b031683850152878652600685528386208251888852601182018752858820865197880190965294548652915192949193811692610627929116612602565b1461067e5760405162461bcd60e51b815260206004820152602160248201527f4361726420686173206e6f74206265656e2066756c6c792064656372797074656044820152601960fa1b6064820152608401610462565b600081600a0160020185815481106106a657634e487b7160e01b600052603260045260246000fd5b9060005260206000200154905060006106bd612644565b905060005b845160ff1681101561071857828282603481106106ef57634e487b7160e01b600052603260045260246000fd5b602002015114156107065794506107249350505050565b806107108161470a565b9150506106c2565b50620f423f9450505050505b92915050565b60408051602081019091526000815260085483111561075b5760405162461bcd60e51b815260040161046290614420565b60008381526005602052604090205460ff1682106107ad5760405162461bcd60e51b815260206004820152600f60248201526e092dcecc2d8d2c840c6c2e4c892c8f608b1b6044820152606401610462565b5060009182526006602090815260408084209284526011909201815291819020815192830190915254815290565b60008581526004602052604090205485906001600160a01b031633146108135760405162461bcd60e51b8152600401610462906144df565b60008681526006602052604090206001810154156108665760405162461bcd60e51b815260206004820152601060248201526f034b73a32b93730b61032b937b93910960851b6044820152606401610462565b600087815260056020526040902054610100900460ff1685106108ea5760405162461bcd60e51b815260206004820152603660248201527f67616d6520636f6e7472616374206572726f723a206465616c206361726420746044820152751bc8185b881a5b9d985b1a59081c1b185e595c881a5960521b6064820152608401610462565b6004815460ff16600781111561091057634e487b7160e01b600052602160045260246000fd5b1461092157805460ff191660041781555b85516012820155601381018590558461093b576001818101555b6000878152600760205260409020610954908585613760565b50600080516020614795833981519152878260010154600460405161097b9392919061457b565b60405180910390a150505050505050565b600084815260066020526040902054849060049060ff1660078111156109c257634e487b7160e01b600052602160045260246000fd5b8160078111156109e257634e487b7160e01b600052602160045260246000fd5b146109ff5760405162461bcd60e51b815260040161046290614470565b6000868152600660208190526040909120600181015491810180548993908110610a3957634e487b7160e01b600052603260045260246000fd5b6000918252602090912001546001600160a01b0316331480610a95575080600701816001015481548110610a7d57634e487b7160e01b600052603260045260246000fd5b6000918252602090912001546001600160a01b031633145b610ab15760405162461bcd60e51b815260040161046290614448565b60008881526005602090815260408083208151606081018352905460ff80821683526101008204811683860152620100009091046001600160a01b0316828401528c855260068452828520835194850190935260128301548452815191949293610b1d92909116612602565b9050808a5114610b6f5760405162461bcd60e51b815260206004820152601a60248201527f6e756d626572206f662070726f6f66732069732077726f6e67210000000000006044820152606401610462565b80895114610b8f5760405162461bcd60e51b81526004016104629061449c565b80885114610bdf5760405162461bcd60e51b815260206004820152601e60248201527f696e69742064656c7461277320736861706520697320696e76616c69642100006044820152606401610462565b6000805b845160ff16811015610cb257604080516020810190915260128501548152610c0b9082612e12565b15610ca057610c928d828e8581518110610c3557634e487b7160e01b600052603260045260246000fd5b60200260200101518e8681518110610c5d57634e487b7160e01b600052603260045260246000fd5b60200260200101518e8781518110610c8557634e487b7160e01b600052603260045260246000fd5b6020026020010151612e6d565b81610c9c8161470a565b9250505b80610caa8161470a565b915050610be3565b50600183018054906000610cc58361470a565b9091555050601383015460018401541415610cf257600183018054906000610cec8361470a565b91905055505b836020015160ff1683600101541415610d3f57600060018401819055601384015481526005840160205260408120805491610d2c8361470a565b9190505550610d3a8c6124f4565b610d6e565b6000805160206147958339815191528c84600101546004604051610d659392919061457b565b60405180910390a15b505050505050505050505050565b6000600854821115610da05760405162461bcd60e51b815260040161046290614420565b60008281526006602052604090205460ff16600781111561072457634e487b7160e01b600052602160045260246000fd5b610dd96132f9565b610de36000613353565b565b60008381526004602052604090205483906001600160a01b03163314610e1d5760405162461bcd60e51b8152600401610462906144df565b600084815260066020526040902054849060019060ff166007811115610e5357634e487b7160e01b600052602160045260246000fd5b816007811115610e7357634e487b7160e01b600052602160045260246000fd5b14610e905760405162461bcd60e51b815260040161046290614470565b6000868152600660209081526040808320805460ff191660021781556007909252909120610ebf908787613760565b5050505050505050565b600080600260008481526006602052604090205460ff166007811115610eff57634e487b7160e01b600052602160045260246000fd5b1415610f4d5760405162461bcd60e51b815260206004820152601a60248201527f6167677265676174656420706b206973206e6f742072656164790000000000006044820152606401610462565b5050600090815260066020526040902060028101546003909101549091565b600083815260066020526040902054839060039060ff166007811115610fa257634e487b7160e01b600052602160045260246000fd5b816007811115610fc257634e487b7160e01b600052602160045260246000fd5b14610fdf5760405162461bcd60e51b815260040161046290614470565b600085815260066020819052604090912060018101549181018054889390811061101957634e487b7160e01b600052603260045260246000fd5b6000918252602090912001546001600160a01b031633148061107557508060070181600101548154811061105d57634e487b7160e01b600052603260045260246000fd5b6000918252602090912001546001600160a01b031633145b6110915760405162461bcd60e51b815260040161046290614448565b6000878152600560209081526040808320815160608082018452915460ff8082168352610100820416828601526001600160a01b036201000090910481168285019081528d875260068652958490209551845180860186528d5181528d8701518188015285516080810187528e8701518188019081528f87015196820196909652948552855180870190965292969591169363c32e370e9391820190808e6004602002015181526020018e60056008811061115c57634e487b7160e01b600052603260045260246000fd5b60200201519052905260408051808201909152808d6006602002015181526020018d60076008811061119e57634e487b7160e01b600052603260045260246000fd5b60200201519052604051632cd0e50560e11b8152600a8701600482015273__$d47becb81019548f7f576af8d4fb3b3fb3$__9063b5b19c4d908e9083906359a1ca0a9060240160006040518083038186803b1580156111fc57600080fd5b505af4158015611210573d6000803e3d6000fd5b505050506040513d6000823e601f3d908101601f191682016040526112389190810190613bd3565b6004808b015460028c015460038d01546040516001600160e01b031960e089901b16815261126896959401614516565b60006040518083038186803b15801561128057600080fd5b505af4158015611294573d6000803e3d6000fd5b505050506040513d6000823e601f3d908101601f191682016040526112bc9190810190613b7d565b6040518563ffffffff1660e01b81526004016112db9493929190614304565b60006040518083038186803b1580156112f357600080fd5b505afa158015611307573d6000803e3d6000fd5b50506040516367769b9360e01b815273__$d47becb81019548f7f576af8d4fb3b3fb3$__92506367769b939150611347908a90600a860190600401614559565b60006040518083038186803b15801561135f57600080fd5b505af4158015611373573d6000803e3d6000fd5b50505050600181600101600082825461138c9190614666565b90915550506006810154600182015414156113b657600060018201556113b1896124f4565b6113e5565b60008051602061479583398151915289826001015460036040516113dc9392919061457b565b60405180910390a15b505050505050505050565b6000828152600660205260409020805482919060ff1916600183600781111561142957634e487b7160e01b600052602160045260246000fd5b02179055505050565b60608060608061144e6040518060200160405280600081525090565b604080516020810190915260008152604080516020810190915260008152600088815260066020908152604091829020600b01805483518184028101840190945280845290918301828280156114c357602002820191906000526020600020905b8154815260200190600101908083116114af575b5050505050965060066000898152602001908152602001600020600a0160030180548060200260200160405190810160405280929190818152602001828054801561152d57602002820191906000526020600020905b815481526020019060010190808311611519575b5050505050945060066000898152602001908152602001600020600a0160020180548060200260200160405190810160405280929190818152602001828054801561159757602002820191906000526020600020905b815481526020019060010190808311611583575b5050505050955060066000898152602001908152602001600020600a0160040180548060200260200160405190810160405280929190818152602001828054801561160157602002820191906000526020600020905b8154815260200190600101908083116115ed575b5050505050935060066000898152602001908152602001600020600a01600501604051806020016040529081600082015481525050925060066000898152602001908152602001600020600a01600601604051806020016040529081600082015481525050915060066000898152602001908152602001600020600a016008016040518060200160405290816000820154815250509050919395979092949650565b6000806008600081546116b59061470a565b91829055506000818152600560209081526040808320805461ff00191661010060ff8a160217905560048083528184208054336001600160a01b0319909116811790915560068452828520805460ff1916600117815583516337cf533160e01b815293519697509590936337cf5331938084019391929190829003018186803b15801561174157600080fd5b505afa158015611755573d6000803e3d6000fd5b505050506040513d601f19601f820116820180604052508101906117799190613bb7565b600281111561179857634e487b7160e01b600052602160045260246000fd5b14156117f9576001805460008481526005602081905260408220805461ff01600160b01b0319166001600160a01b03909416620100000260ff19908116949094179091179055600a84018054919390929190911690835b0217905550611a10565b6001336001600160a01b03166337cf53316040518163ffffffff1660e01b815260040160206040518083038186803b15801561183457600080fd5b505afa158015611848573d6000803e3d6000fd5b505050506040513d601f19601f8201168201806040525081019061186c9190613bb7565b600281111561188b57634e487b7160e01b600052602160045260246000fd5b14156118e0576002546000838152600560205260409020805460ff19620100006001600160a01b0390941693909302831661ff01600160b01b031990911617601e179055600a820180546001921682806117ef565b6002336001600160a01b03166337cf53316040518163ffffffff1660e01b815260040160206040518083038186803b15801561191b57600080fd5b505afa15801561192f573d6000803e3d6000fd5b505050506040513d601f19601f820116820180604052508101906119539190613bb7565b600281111561197257634e487b7160e01b600052602160045260246000fd5b14156119c8576003546000838152600560205260409020805460ff19620100006001600160a01b0390941693909302831661ff01600160b01b0319909116176034179055600a82018054600292166001836117ef565b60405162461bcd60e51b815260206004820152601960248201527f556e737570706f727465642073697a65206f66206465636b2e000000000000006044820152606401610462565b6040516394c80c6b60e01b8152600a8201600482015273__$d47becb81019548f7f576af8d4fb3b3fb3$__906394c80c6b9060240160006040518083038186803b158015611a5d57600080fd5b505af4158015611a71573d6000803e3d6000fd5b50939695505050505050565b60008581526004602052604090205485906001600160a01b03163314611ab55760405162461bcd60e51b8152600401610462906144df565b6000868152600660209081526040808320888452600581019092529091205460ff86161115611b265760405162461bcd60e51b815260206004820152601e60248201527f646f6e2774206861766520656e6f756768206361726420746f206f70656e00006044820152606401610462565b805461ff00191661010060ff871602178155600181018690556000878152600760205260409020611b58908585613760565b50805460ff1916600590811782556040516000805160206147958339815191529161097b918a918a9161457b565b600084815260066020526040902054849060059060ff166007811115611bbc57634e487b7160e01b600052602160045260246000fd5b816007811115611bdc57634e487b7160e01b600052602160045260246000fd5b14611bf95760405162461bcd60e51b815260040161046290614470565b6000868152600660208190526040909120600181015491810180548993908110611c3357634e487b7160e01b600052603260045260246000fd5b6000918252602090912001546001600160a01b0316331480611c8f575080600701816001015481548110611c7757634e487b7160e01b600052603260045260246000fd5b6000918252602090912001546001600160a01b031633145b611cab5760405162461bcd60e51b815260040161046290614448565b60008881526005602090815260408083208151606081018352905460ff80821683526101008204811683860152620100009091046001600160a01b0316828401528c855260068452828520835194850190935260128301548452815191949293611d1792909116612602565b8254909150610100900460ff168114611d8e5760405162461bcd60e51b815260206004820152603360248201527f63617264732070617373656420627920706c6179657220646f65736e2774206d60448201527230ba31b410373ab6b132b9103a379037b832b760691b6064820152608401610462565b80895114611dde5760405162461bcd60e51b815260206004820152601a60248201527f6e756d626572206f662070726f6f66732069732077726f6e67210000000000006044820152606401610462565b80885114611dfe5760405162461bcd60e51b81526004016104629061449c565b60408051808201909152600080825260208201819052805b855160ff16811015611eac57611e2c8d82612e12565b15611e9a57611e8c8e828e8581518110611e5657634e487b7160e01b600052603260045260246000fd5b60200260200101518e8681518110611e7e57634e487b7160e01b600052603260045260246000fd5b602002602001015187612e6d565b81611e968161470a565b9250505b80611ea48161470a565b915050611e16565b50835461ff0019168455600184015460009081526005850160205260408120805491611ed7836146b8565b9190505550611ee58d6124f4565b50505050505050505050505050565b600084815260066020526040812054859060029060ff166007811115611f2a57634e487b7160e01b600052602160045260246000fd5b816007811115611f4a57634e487b7160e01b600052602160045260246000fd5b14611f675760405162461bcd60e51b815260040161046290614470565b611f7185856133a5565b611fb25760405162461bcd60e51b8152602060048201526012602482015271496e76616c6964207075626c6963206b657960701b6044820152606401610462565b60008781526005602090815260408083208151606081018352905460ff808216835261010082048116838601908152620100009092046001600160a01b0316838501528c865260069485905292909420935192840154909392909116116120475760405162461bcd60e51b815260206004820152600960248201526811d85b5948199d5b1b60ba1b6044820152606401610462565b600681018054600180820183556000928352602080842083018054336001600160a01b03199182161790915560078601805480850182559086528286200180549091166001600160a01b038e161790556008850180548084018255908552818520018b9055600985018054928301815584529092209091018790559450846120dc5760028101879055600381018690556120fb565b6120f081600201548260030154898961344f565b600383015560028201555b604080518681523360208201528a917f8c0cb3290f4d566876f8041fca1da8916de98af44c6c93bc495f6e9cebcec8ca910160405180910390a2600182602001516121469190614695565b60ff168514156121785760008051602061477583398151915281600301548260020154096004820155612178896124f4565b50505050949350505050565b6000828152600660205260408120815b60068201548110156121fd578160060181815481106121c357634e487b7160e01b600052603260045260246000fd5b6000918252602090912001546001600160a01b03858116911614156121eb5791506107249050565b806121f58161470a565b915050612194565b50620f423f949350505050565b600060085482111561222e5760405162461bcd60e51b815260040161046290614420565b5060009081526005602052604090205460ff1690565b60008181526004602081815260408084205481516337cf533160e01b815291516001600160a01b03909116936337cf5331938382019390929190829003018186803b15801561229257600080fd5b505afa1580156122a6573d6000803e3d6000fd5b505050506040513d601f19601f820116820180604052508101906107249190613bb7565b60008181526004602052604090205481906001600160a01b031633146123025760405162461bcd60e51b8152600401610462906144df565b6000828152600660209081526040808320805460ff191660071781556004909252822080546001600160a01b0319169055905b60068201548110156104a357600080516020614795833981519152848260076040516123639392919061457b565b60405180910390a1806123758161470a565b915050612335565b6123856132f9565b6001600160a01b0381166123ea5760405162461bcd60e51b815260206004820152602660248201527f4f776e61626c653a206e6577206f776e657220697320746865207a65726f206160448201526564647265737360d01b6064820152608401610462565b6123f381613353565b50565b60008381526004602052604090205483906001600160a01b0316331461242e5760405162461bcd60e51b8152600401610462906144df565b600084815260066020526040902060018101541561249a5760405162461bcd60e51b815260206004820152602360248201527f77726f6e6720706c6179657220696e64657820746f2073746172742073687566604482015262666c6560e81b6064820152608401610462565b805460ff1916600317815560008581526007602052604090206124be908585613760565b5060008051602061479583398151915285826001015460036040516124e59392919061457b565b60405180910390a15050505050565b600081815260046020908152604080832054600790925280832090516001600160a01b0390921691612526919061420c565b6000604051808303816000865af19150503d8060008114612563576040519150601f19603f3d011682016040523d82523d6000602084013e612568565b606091505b50509050806125b95760405162461bcd60e51b815260206004820152601b60248201527f4572726f722063616c6c696e672067616d6520636f6e747261637400000000006044820152606401610462565b5050565b6125b982826040516024016125d39291906143c5565b60408051601f198184030181529190526020810180516001600160e01b0316632d839cb360e21b17905261359d565b6000805b8281101561263d576126188482612e12565b1561262b57816126278161470a565b9250505b806126358161470a565b915050612606565b5092915050565b61264c6137e4565b6040518061068001604052807f0bb77a6ad63e739b4eacb2e09d6277c12ab8d8010534e0b62893f3f6bb95705181526020017f162d7e417903fa1c82f2d227e35b846b1133cfca4f558b5feb9fdcd5f81dd90281526020017f061c1436d1c3008037e887c8234dcf7c33c947ad93695b8000fcb4ab70477e3e81526020017f1b16e357953d68d73398c838aa883cc65ddae2aef75a4bc437e4232afdbe43c881526020017f1961ff2315812fd2f3e459a258f5ded2dde68cd35c79c8b9fb443e1860e1fbe481526020017f172dba8d231345b865223308fe44ba307c159de512787257113e2a7137f831b481526020017f2c6bfc7fe056ed38e26ec136ec8aec5f63ecc4b52c44afba967649cf1e6e231181526020017f10c347ae3592776a678f9fc29ecd029f8297367209a4f28f7cb49b09bffd414581526020017f0a677185fd6cd905b6a544b1006f4b3ea4a0dd596d47cabdab76a305859d928f81526020017e56bb35a182e54545be6d1ea242a6b0afdaecc266c1aadfb94d32b8d5c3dc9681526020017f2fc449e2dd0c5349d06092adc126e213858984584e429842d87bcc705837c76581526020017f1e63a5693d8b144378b08379f7ffdcabeb15e2e1490037b346c892925926574c81526020017f05d90e36c0fc967d6887b01380ca8f7264e45fd56692179d6346636a0ce10a6981526020017f0ddd95af0dc7f8e96c42e8f3691617c0db82583abe3b5e9187051005b9d6cd6181526020017f0d2c8ddcfdd735e9fdd0d51538022ba533cfa83b81d2acec70b17f505c17f04881526020017f2d66d2bb7bd385a5e2965d03466bc0579ce96b37ef9541be1aff46d01226964881526020017f1dfcdbf7e39fd2a9abeb0bba9446dc44db475f7a7533b645b568483ef44445c181526020017f0973a33d37dcd6bac5fbb80bd94667df758a27a55f74f2f47e9f346dd3599e5b81526020017f07ea98448dca17ae8d59c3e84258ae1b8e6b603cc01d67c6a65d88ba0119879d81526020017f28f4a492bbfdf5eed5ad1b304b95fb96040be5e4281bd288b1955f61bfac0afa81526020017f04c35ccbb891b482efb0d9615a446bf4965e59c524c5e99e5048d21370c4d17181526020017f0403f4c5f05d58ecdd3cba7f28c8a0cff1200cc996701751bd159f7a929a83ae81526020017f080bb2c9aa710cdece43712df035d5580ee2f909f70c86f3ee311a1bf11ec90e81526020017f2822909a7b938c9f0f2032d0004b3364f776e7097baf972e96b53a0af21e46cf81526020017f0b720cb8666a37228a60d13a78a44d755167cc280f0954db82b110cdec03dd2981526020017f1a0ca12c0b9d5ceaee4e186c1eb77be10992112608ce9b20abeec370ac26a2d881526020017f216b057078fda7e68f74840d69ddd2d9339fa5087224930aeb7b917c6b177ddd81526020017f239a26d12954771a03d624b21a260f447412b746b66eede628a2f0af3be0a21281526020017f2290daef092cdb12c7c1d72dd140aa1025d8e8c07373278b43229b7cc0ca11a381526020017f1de5305a20483a9b39f575599249f4aef3d3e9fc48c762a9751eebef9612bee281526020017f1390b1c9d9a82d2159b46c2bb964b4b2f33fce1689896c95545db5582db57f2e81526020017f26fea02c1cb0b62f637363a8456633b4fce66bff1447b0c5b9e86c0d74b80e8f81526020017f277f7b5cc9bfe6b5986519722f530a0573e13bb9e79b3d53b89b9bdcb8212d3f81526020017f1547e0c5efe888ce946b013b8243b78a5f678ea941c867f5892706ff56e4816481526020017f2ad530c497ea4713f4970a7f62956537cfc8588f07ddc027dd4fd0c6c10e5a4381526020017f1056ab97cf05bcdb2105fbc0b84f38b0965027abf7ca5361ac09f68adeb56eed81526020017f226bea5ceca4c99040ef2ebf3c5c51cfc588f331437889263f1a2b987d24fd8481526020017f0c52c9ec80c576338a26cdde50a9e65e85b87472c7fa91e20e755826d904f62b81526020017f2aebb7ffc8598c5238f2fdb7cb853b11eef3b252d7ebe49f6ef75ec72e38ec4f81526020017f092d4b125f827c10993cfadbfc2596532d4065212df9f63a767e853152cf132381526020017f1cc142514ccfce20877d91b82265542f585acc7abd05bb4ccbba837abced761a81526020017f06184da392a17823e9c1d38cb50980b17150ffa411965b03f0b0200d9557daa981526020017f2de1f83ba2bf5ef20a63881b4af4fb1149cc71d27a9d3f7471d3bab13401d72e81526020017f294b01e9bef3cbeec553d6e01ae9c7e9f0da12a81d5f874fa8820850b29446ef81526020017f1f5b4e9c9f3998ac1115c24cff5d56475b73fe0600bec2656accb54c6858db1081526020017f15ed766f45161e8cf3f750978ea18828b8cdf8211494307002aac2bb8194464281526020017f1d98dcee4ad7e854ab175c4c9d2596db3ff4d366f2b4768245f1b191c9abd2dc81526020017f0eea43c2e39c9465cfc56a2b80f746b1ff0389129e0eedf33600020246d66e1281526020017f267076b8c3d79269cb83185bd7758f05fb0029c23e2f429ac2a16cc7b449a17981526020017f1930694c542b3f428ca02285f978b47ecf06de207dc299736c06766d7f2e17e681526020017f23f14882a28cc7ba2b752c5eb037c0606451d81fc6a58b4c647e7fca3c3e941c81526020017f081ee42bc135a4e8e89208103bdf883a591cab8babacfcf201789f78bf9bcb31815250905090565b60006101008210612e5a5760405162461bcd60e51b8152602060048201526012602482015271696e646578206f7574206f662072616e676560701b6044820152606401610462565b508151600160ff83161b16151592915050565b60008581526006602090815260408083208784526011810183529281902081519283019091525481526001820154612ea59190612e12565b15612f065760405162461bcd60e51b815260206004820152602b60248201527f5468697320706c6179657220686173206465637279707465642074686973206360448201526a61726420616c726561647960a81b6064820152608401610462565b600085815260118201602052604090205461302d57612f7481600a016001018681548110612f4457634e487b7160e01b600052603260045260246000fd5b600091825260209182902001548451604080519384019052600f85015483529091612f6f9089612e12565b6135be565b600d8201805487908110612f9857634e487b7160e01b600052603260045260246000fd5b9060005260206000200181905550612ffc81600a016002018681548110612fcf57634e487b7160e01b600052603260045260246000fd5b6000918252602091829020015484820151604080519384019052601085015483529091612f6f9089612e12565b600e820180548790811061302057634e487b7160e01b600052603260045260246000fd5b6000918252602090912001555b6000546040805180820182528651815260208088015181830152825160808082018552898501518286019081526060808c015190840152825284518086018652908a0151815260a08a015181840152818301528351808501855260c08a0151815260e08a015181840152845161010081018652895181528984015193810193909352600b870180546001600160a01b039097169663c9219a7a9693949293830191908d9081106130ed57634e487b7160e01b600052603260045260246000fd5b9060005260206000200154815260200187600a016003018c8154811061312357634e487b7160e01b600052603260045260246000fd5b9060005260206000200154815260200187600a016002018c8154811061315957634e487b7160e01b600052603260045260246000fd5b9060005260206000200154815260200187600a016004018c8154811061318f57634e487b7160e01b600052603260045260246000fd5b90600052602060002001548152602001876008018860010154815481106131c657634e487b7160e01b600052603260045260246000fd5b90600052602060002001548152602001876009018860010154815481106131fd57634e487b7160e01b600052603260045260246000fd5b90600052602060002001548152506040518563ffffffff1660e01b815260040161322a94939291906142a7565b60006040518083038186803b15801561324257600080fd5b505afa158015613256573d6000803e3d6000fd5b50505050826000015181600a01600201868154811061328557634e487b7160e01b600052603260045260246000fd5b9060005260206000200181905550826020015181600a0160040186815481106132be57634e487b7160e01b600052603260045260246000fd5b60009182526020808320909101929092558681526011830190915260409020600180830154825460ff9091169190911b179055505050505050565b6009546001600160a01b03163314610de35760405162461bcd60e51b815260206004820181905260248201527f4f776e61626c653a2063616c6c6572206973206e6f7420746865206f776e65726044820152606401610462565b600980546001600160a01b038381166001600160a01b0319831681179093556040519116919082907f8be0079c531659141344cd1fd0a4f28419497f9722a3daafe3b4186f6b6457e090600090a35050565b60008060008051602061477583398151915284850990506000600080516020614775833981519152848509905060006000805160206147758339815191528260008051602061477583398151915285620292fc090890506000600080516020614775833981519152808460008051602061477583398151915287620292f80909600108905061344382826000805160206147758339815191526136a5565b15979650505050505050565b6000808515801561345e575084155b1561346d575082905081613594565b83158015613479575084155b15613488575084905083613594565b6000600080516020614775833981519152858809905060006000805160206147758339815191528588099050600060008051602061477583398151915280838509620292f8099050600060008051602061477583398151915280898b09600080516020614775833981519152898d0908905060006135298460008051602061477583398151915287620292fc096000805160206147758339815191526136a5565b9050600080516020614775833981519152613555600080516020614775833981519152856001086136ee565b8309965060008051602061477583398151915261358a6135856001866000805160206147758339815191526136a5565b6136ee565b8209955050505050505b94509492505050565b80516a636f6e736f6c652e6c6f67602083016000808483855afa5050505050565b60007f183227397098d014dc2822db40c0ac2e9419f4243cdcb848a1f0fac9f80000008311156136205760405162461bcd60e51b815260206004820152600d60248201526c496e76616c69642064656c746160981b6044820152606401610462565b61362a84846133a5565b6136765760405162461bcd60e51b815260206004820152601860248201527f4e6f74206f6e2062616279206a75626a756220637572766500000000000000006044820152606401610462565b811561368357508161369e565b61369b8360008051602061477583398151915261467e565b90505b9392505050565b6000838381116136bc576136b98382614666565b90505b82806136d857634e487b7160e01b600052601260045260246000fd5b60006136e4868461467e565b0895945050505050565b60006107248261370d600260008051602061477583398151915261467e565b600080516020614775833981519152600060405160208152602080820152602060408201528460608201528360808201528260a082015260208160c08360055afa8080156101c457505051949350505050565b82805461376c906146cf565b90600052602060002090601f01602090048101928261378e57600085556137d4565b82601f106137a75782800160ff198235161785556137d4565b828001600101855582156137d4579182015b828111156137d45782358255916020019190600101906137b9565b506137e0929150613803565b5090565b6040518061068001604052806034906020820280368337509192915050565b5b808211156137e05760008155600101613804565b6000604051604081018181106001600160401b038211171561383c5761383c614751565b8060405250809150828460408501111561385557600080fd5b60005b6002811015613877578135835260209283019290910190600101613858565b50505092915050565b80356001600160a01b038116811461389757600080fd5b919050565b600082601f8301126138ac578081fd5b813560206138c16138bc83614643565b614613565b80838252828201915082860187848660081b89010111156138e0578586fd5b855b8581101561390a576138f48983613996565b84529284019261010091909101906001016138e2565b5090979650505050505050565b600082601f830112613927578081fd5b813560206139376138bc83614643565b80838252828201915082860187848660061b8901011115613956578586fd5b855b8581101561390a57604080838b031215613970578788fd5b6139786145a7565b83358152868401358782015285529385019390910190600101613958565b600082601f8301126139a6578081fd5b6040516101008082018281106001600160401b03821117156139ca576139ca614751565b60405281848281018710156139dd578485fd5b8492505b6008831015613a01578035825260019290920191602091820191016139e1565b509195945050505050565b600082601f830112613a1c578081fd5b81356020613a2c6138bc83614643565b80838252828201915082860187848660051b8901011115613a4b578586fd5b855b8581101561390a57813584529284019290840190600101613a4d565b600082601f830112613a79578081fd5b81516020613a896138bc83614643565b80838252828201915082860187848660051b8901011115613aa8578586fd5b855b8581101561390a57815184529284019290840190600101613aaa565b60008083601f840112613ad7578182fd5b5081356001600160401b03811115613aed578182fd5b602083019150836020828501011115613b0557600080fd5b9250929050565b600060208284031215613b1d578081fd5b613b256145cf565b9135825250919050565b600060208284031215613b40578081fd5b613b486145cf565b9151825250919050565b803560ff8116811461389757600080fd5b600060208284031215613b74578081fd5b61369e82613880565b600060208284031215613b8e578081fd5b81516001600160401b03811115613ba3578182fd5b613baf84828501613a69565b949350505050565b600060208284031215613bc8578081fd5b815161369e81614767565b600060208284031215613be4578081fd5b81516001600160401b0380821115613bfa578283fd5b9083019060a08286031215613c0d578283fd5b613c156145f1565b8251613c2081614767565b8152602083015182811115613c33578485fd5b613c3f87828601613a69565b602083015250604083015182811115613c56578485fd5b613c6287828601613a69565b604083015250613c758660608501613b2f565b6060820152613c878660808501613b2f565b608082015295945050505050565b600060208284031215613ca6578081fd5b5035919050565b60008060408385031215613cbf578081fd5b82359150613ccf60208401613880565b90509250929050565b60008060008060808587031215613ced578182fd5b84359350613cfd60208601613880565b93969395505050506040820135916060013590565b60008060008060808587031215613d27578182fd5b843593506020808601356001600160401b0380821115613d45578485fd5b613d5189838a0161389c565b9550604091508188013581811115613d67578586fd5b613d738a828b01613917565b955050606088013581811115613d87578485fd5b88019050601f8082018a13613d9a578485fd5b8135613da86138bc82614643565b8082825286820191508685018d888560061b8801011115613dc7578889fd5b8895505b83861015613dfe578d85820112613de0578889fd5b613dea8e82613818565b835260019590950194918701918601613dcb565b50999c989b5096995050505050505050565b60008060006101408486031215613e25578081fd5b83359250613e368560208601613996565b91506101208401356001600160401b0380821115613e52578283fd5b9085019060a08288031215613e65578283fd5b613e6d6145f1565b8235613e7881614767565b8152602083013582811115613e8b578485fd5b613e9789828601613a0c565b602083015250604083013582811115613eae578485fd5b613eba89828601613a0c565b604083015250613ecd8860608501613b0c565b6060820152613edf8860808501613b0c565b60808201528093505050509250925092565b600080600060408486031215613f05578081fd5b8335925060208401356001600160401b03811115613f21578182fd5b613f2d86828701613ac6565b9497909650939450505050565b60008060408385031215613f4c578182fd5b82359150602083013560088110613f61578182fd5b809150509250929050565b60008060008060808587031215613f81578182fd5b84359350613f928660208701613b0c565b925060408501356001600160401b0380821115613fad578384fd5b613fb98883890161389c565b93506060870135915080821115613fce578283fd5b50613fdb87828801613917565b91505092959194509250565b600080600080600060808688031215613ffe578283fd5b8535945061400f8760208801613b0c565b93506040860135925060608601356001600160401b03811115614030578182fd5b61403c88828901613ac6565b969995985093965092949392505050565b6000806040838503121561405f578182fd5b50508035926020909101359150565b600080600080600060808688031215614085578283fd5b853594506020860135935061409c60408701613b52565b925060608601356001600160401b03811115614030578182fd5b6000806000606084860312156140ca578081fd5b833592506140da60208501613b52565b91506140e860408501613b52565b90509250925092565b600060208284031215614102578081fd5b61369e82613b52565b8060005b60028110156104a357614123848351614139565b604093909301926020919091019060010161410f565b8060005b60028110156104a357815184526020938401939091019060010161413d565b6000815180845260208085019450808401835b8381101561418b5781518752958201959082019060010161416f565b509495945050505050565b600381106141a6576141a661473b565b9052565b6141b5828251614196565b6000602082015160a060208501526141d060a085018261415c565b9050604083015184820360408601526141e9828261415c565b915050606083015151606085015260808301515160808501528091505092915050565b600080835482600182811c91508083168061422857607f831692505b602080841082141561424857634e487b7160e01b87526022600452602487fd5b81801561425c576001811461426d57614299565b60ff19861689528489019650614299565b60008a815260209020885b868110156142915781548b820152908501908301614278565b505084890196505b509498975050505050505050565b61020081016142b68287614139565b6142c3604083018661410b565b6142d060c0830185614139565b61010082018360005b60088110156142f85781518352602092830192909101906001016142d9565b50505095945050505050565b60006101206143138388614139565b614320604084018761410b565b61432d60c0840186614139565b806101008401526143408184018561415c565b979650505050505050565b60e08152600061435e60e083018a61415c565b8281036020840152614370818a61415c565b90508281036040840152614384818961415c565b90508281036060840152614398818861415c565b955160808401525050915160a08301525160c090910152949350505050565b602081016107248284614196565b6040815260008351806040840152815b818110156143f257602081870181015160608684010152016143d5565b818111156144035782606083860101525b50602083019390935250601f91909101601f191601606001919050565b6020808252600e908201526d125b9d985b1a590819d85b59525960921b604082015260600190565b6020808252600e908201526d6e6f7420796f7572207475726e2160901b604082015260600190565b60208082526012908201527110da1958dac81cdd185d194819985a5b195960721b604082015260600190565b60208082526023908201527f6e756d626572206f66206465637279707465642063617264732069732077726f6040820152626e672160e81b606082015260800190565b60208082526019908201527f43616c6c6572206973206e6f742067616d65206f776e65722e00000000000000604082015260600190565b60a08152600061452960a08301886141aa565b828103602084015261453b81886141aa565b60408401969096525050606081019290925260809091015292915050565b60408152600061456c60408301856141aa565b90508260208301529392505050565b8381526020810183905260608101600883106145995761459961473b565b826040830152949350505050565b604080519081016001600160401b03811182821017156145c9576145c9614751565b60405290565b604051602081016001600160401b03811182821017156145c9576145c9614751565b60405160a081016001600160401b03811182821017156145c9576145c9614751565b604051601f8201601f191681016001600160401b038111828210171561463b5761463b614751565b604052919050565b60006001600160401b0382111561465c5761465c614751565b5060051b60200190565b6000821982111561467957614679614725565b500190565b60008282101561469057614690614725565b500390565b600060ff821660ff8416808210156146af576146af614725565b90039392505050565b6000816146c7576146c7614725565b506000190190565b600181811c908216806146e357607f821691505b6020821081141561470457634e487b7160e01b600052602260045260246000fd5b50919050565b600060001982141561471e5761471e614725565b5060010190565b634e487b7160e01b600052601160045260246000fd5b634e487b7160e01b600052602160045260246000fd5b634e487b7160e01b600052604160045260246000fd5b600381106123f357600080fdfe30644e72e131a029b85045b68181585d2833e84879b9709143e1f593f0000001bfd41db4bc23153024e205447615431e6600eddc0989e56f47eb218514b2682aa2646970667358221220d7ad8ed2cc631e6056c20b0cdae14bc37e0902a751b72ab4ed8166477e8933e764736f6c63430008040033",
  "linkReferences": {
    "artifacts/cache/solpp-generated-contracts/shuffle/Deck.sol": {
      "zkShuffleCrypto": [
        {
          "length": 20,
          "start": 4908
        },
        {
          "length": 20,
          "start": 5255
        },
        {
          "length": 20,
          "start": 7063
        }
      ]
    }
  },
  "deployedLinkReferences": {
    "artifacts/cache/solpp-generated-contracts/shuffle/Deck.sol": {
      "zkShuffleCrypto": [
        {
          "length": 20,
          "start": 4541
        },
        {
          "length": 20,
          "start": 4888
        },
        {
          "length": 20,
          "start": 6696
        }
      ]
    }
  }
}